{"abi":[{"inputs":[{"internalType":"uint256","name":"_minimumContribution","type":"uint256"},{"internalType":"address","name":"_manager","type":"address"}],"stateMutability":"nonpayable","type":"constructor"},{"inputs":[{"internalType":"uint256","name":"_requestId","type":"uint256"}],"name":"approveRequest","outputs":[],"stateMutability":"nonpayable","type":"function"},{"inputs":[],"name":"contribute","outputs":[],"stateMutability":"payable","type":"function"},{"inputs":[{"internalType":"string","name":"_description","type":"string"},{"internalType":"uint256","name":"_value","type":"uint256"},{"internalType":"address","name":"_recipient","type":"address"}],"name":"createRequest","outputs":[],"stateMutability":"nonpayable","type":"function"},{"inputs":[{"internalType":"uint256","name":"_requestId","type":"uint256"}],"name":"finalizeRequest","outputs":[],"stateMutability":"nonpayable","type":"function"},{"inputs":[{"internalType":"address","name":"","type":"address"}],"name":"funders","outputs":[{"internalType":"bool","name":"","type":"bool"}],"stateMutability":"view","type":"function"},{"inputs":[],"name":"manager","outputs":[{"internalType":"address","name":"","type":"address"}],"stateMutability":"view","type":"function"},{"inputs":[],"name":"minimumContribution","outputs":[{"internalType":"uint256","name":"","type":"uint256"}],"stateMutability":"view","type":"function"},{"inputs":[],"name":"numFunders","outputs":[{"internalType":"uint256","name":"","type":"uint256"}],"stateMutability":"view","type":"function"},{"inputs":[{"internalType":"uint256","name":"","type":"uint256"}],"name":"requests","outputs":[{"internalType":"string","name":"description","type":"string"},{"internalType":"uint256","name":"value","type":"uint256"},{"internalType":"address","name":"recipient","type":"address"},{"internalType":"bool","name":"complete","type":"bool"},{"internalType":"uint256","name":"approvalCount","type":"uint256"}],"stateMutability":"view","type":"function"}],"devdoc":{"kind":"dev","methods":{},"version":1},"evm":{"assembly":"    /* \"Campaign.sol\":455:2336  contract Campaign {... */\n  mstore(0x40, 0x80)\n    /* \"Campaign.sol\":940:1108  constructor(uint _minimumContribution, address _manager) {... */\n  callvalue\n  dup1\n  iszero\n  tag_1\n  jumpi\n  0x00\n  dup1\n  revert\ntag_1:\n  pop\n  mload(0x40)\n  sub(codesize, bytecodeSize)\n  dup1\n  bytecodeSize\n  dup4\n  codecopy\n  dup2\n  dup2\n  add\n  0x40\n  mstore\n  dup2\n  add\n  swap1\n  tag_2\n  swap2\n  swap1\n  tag_3\n  jump\t// in\ntag_2:\n    /* \"Campaign.sol\":1017:1025  _manager */\n  dup1\n    /* \"Campaign.sol\":1007:1014  manager */\n  0x01\n  0x00\n    /* \"Campaign.sol\":1007:1025  manager = _manager */\n  0x0100\n  exp\n  dup2\n  sload\n  dup2\n  0xffffffffffffffffffffffffffffffffffffffff\n  mul\n  not\n  and\n  swap1\n  dup4\n  0xffffffffffffffffffffffffffffffffffffffff\n  and\n  mul\n  or\n  swap1\n  sstore\n  pop\n    /* \"Campaign.sol\":1057:1077  _minimumContribution */\n  dup2\n    /* \"Campaign.sol\":1035:1054  minimumContribution */\n  0x02\n    /* \"Campaign.sol\":1035:1077  minimumContribution = _minimumContribution */\n  dup2\n  swap1\n  sstore\n  pop\n    /* \"Campaign.sol\":1100:1101  0 */\n  0x00\n    /* \"Campaign.sol\":1087:1097  numFunders */\n  0x03\n    /* \"Campaign.sol\":1087:1101  numFunders = 0 */\n  dup2\n  swap1\n  sstore\n  pop\n    /* \"Campaign.sol\":940:1108  constructor(uint _minimumContribution, address _manager) {... */\n  pop\n  pop\n    /* \"Campaign.sol\":455:2336  contract Campaign {... */\n  jump(tag_6)\n    /* \"#utility.yul\":7:150   */\ntag_8:\n  0x00\n    /* \"#utility.yul\":95:101   */\n  dup2\n    /* \"#utility.yul\":89:102   */\n  mload\n    /* \"#utility.yul\":80:102   */\n  swap1\n  pop\n    /* \"#utility.yul\":111:144   */\n  tag_10\n    /* \"#utility.yul\":138:143   */\n  dup2\n    /* \"#utility.yul\":111:144   */\n  tag_11\n  jump\t// in\ntag_10:\n    /* \"#utility.yul\":70:150   */\n  swap3\n  swap2\n  pop\n  pop\n  jump\t// out\n    /* \"#utility.yul\":156:299   */\ntag_12:\n  0x00\n    /* \"#utility.yul\":244:250   */\n  dup2\n    /* \"#utility.yul\":238:251   */\n  mload\n    /* \"#utility.yul\":229:251   */\n  swap1\n  pop\n    /* \"#utility.yul\":260:293   */\n  tag_14\n    /* \"#utility.yul\":287:292   */\n  dup2\n    /* \"#utility.yul\":260:293   */\n  tag_15\n  jump\t// in\ntag_14:\n    /* \"#utility.yul\":219:299   */\n  swap3\n  swap2\n  pop\n  pop\n  jump\t// out\n    /* \"#utility.yul\":305:745   */\ntag_3:\n  0x00\n  dup1\n    /* \"#utility.yul\":441:443   */\n  0x40\n    /* \"#utility.yul\":429:438   */\n  dup4\n    /* \"#utility.yul\":420:427   */\n  dup6\n    /* \"#utility.yul\":416:439   */\n  sub\n    /* \"#utility.yul\":412:444   */\n  slt\n    /* \"#utility.yul\":409:411   */\n  iszero\n  tag_17\n  jumpi\n    /* \"#utility.yul\":457:458   */\n  0x00\n    /* \"#utility.yul\":454:455   */\n  dup1\n    /* \"#utility.yul\":447:459   */\n  revert\n    /* \"#utility.yul\":409:411   */\ntag_17:\n    /* \"#utility.yul\":500:501   */\n  0x00\n    /* \"#utility.yul\":525:589   */\n  tag_18\n    /* \"#utility.yul\":581:588   */\n  dup6\n    /* \"#utility.yul\":572:578   */\n  dup3\n    /* \"#utility.yul\":561:570   */\n  dup7\n    /* \"#utility.yul\":557:579   */\n  add\n    /* \"#utility.yul\":525:589   */\n  tag_12\n  jump\t// in\ntag_18:\n    /* \"#utility.yul\":515:589   */\n  swap3\n  pop\n    /* \"#utility.yul\":471:599   */\n  pop\n    /* \"#utility.yul\":638:640   */\n  0x20\n    /* \"#utility.yul\":664:728   */\n  tag_19\n    /* \"#utility.yul\":720:727   */\n  dup6\n    /* \"#utility.yul\":711:717   */\n  dup3\n    /* \"#utility.yul\":700:709   */\n  dup7\n    /* \"#utility.yul\":696:718   */\n  add\n    /* \"#utility.yul\":664:728   */\n  tag_8\n  jump\t// in\ntag_19:\n    /* \"#utility.yul\":654:728   */\n  swap2\n  pop\n    /* \"#utility.yul\":609:738   */\n  pop\n    /* \"#utility.yul\":399:745   */\n  swap3\n  pop\n  swap3\n  swap1\n  pop\n  jump\t// out\n    /* \"#utility.yul\":751:847   */\ntag_20:\n  0x00\n    /* \"#utility.yul\":817:841   */\n  tag_22\n    /* \"#utility.yul\":835:840   */\n  dup3\n    /* \"#utility.yul\":817:841   */\n  tag_23\n  jump\t// in\ntag_22:\n    /* \"#utility.yul\":806:841   */\n  swap1\n  pop\n    /* \"#utility.yul\":796:847   */\n  swap2\n  swap1\n  pop\n  jump\t// out\n    /* \"#utility.yul\":853:979   */\ntag_23:\n  0x00\n    /* \"#utility.yul\":930:972   */\n  0xffffffffffffffffffffffffffffffffffffffff\n    /* \"#utility.yul\":923:928   */\n  dup3\n    /* \"#utility.yul\":919:973   */\n  and\n    /* \"#utility.yul\":908:973   */\n  swap1\n  pop\n    /* \"#utility.yul\":898:979   */\n  swap2\n  swap1\n  pop\n  jump\t// out\n    /* \"#utility.yul\":985:1062   */\ntag_25:\n  0x00\n    /* \"#utility.yul\":1051:1056   */\n  dup2\n    /* \"#utility.yul\":1040:1056   */\n  swap1\n  pop\n    /* \"#utility.yul\":1030:1062   */\n  swap2\n  swap1\n  pop\n  jump\t// out\n    /* \"#utility.yul\":1068:1190   */\ntag_11:\n    /* \"#utility.yul\":1141:1165   */\n  tag_28\n    /* \"#utility.yul\":1159:1164   */\n  dup2\n    /* \"#utility.yul\":1141:1165   */\n  tag_20\n  jump\t// in\ntag_28:\n    /* \"#utility.yul\":1134:1139   */\n  dup2\n    /* \"#utility.yul\":1131:1166   */\n  eq\n    /* \"#utility.yul\":1121:1123   */\n  tag_29\n  jumpi\n    /* \"#utility.yul\":1180:1181   */\n  0x00\n    /* \"#utility.yul\":1177:1178   */\n  dup1\n    /* \"#utility.yul\":1170:1182   */\n  revert\n    /* \"#utility.yul\":1121:1123   */\ntag_29:\n    /* \"#utility.yul\":1111:1190   */\n  pop\n  jump\t// out\n    /* \"#utility.yul\":1196:1318   */\ntag_15:\n    /* \"#utility.yul\":1269:1293   */\n  tag_31\n    /* \"#utility.yul\":1287:1292   */\n  dup2\n    /* \"#utility.yul\":1269:1293   */\n  tag_25\n  jump\t// in\ntag_31:\n    /* \"#utility.yul\":1262:1267   */\n  dup2\n    /* \"#utility.yul\":1259:1294   */\n  eq\n    /* \"#utility.yul\":1249:1251   */\n  tag_32\n  jumpi\n    /* \"#utility.yul\":1308:1309   */\n  0x00\n    /* \"#utility.yul\":1305:1306   */\n  dup1\n    /* \"#utility.yul\":1298:1310   */\n  revert\n    /* \"#utility.yul\":1249:1251   */\ntag_32:\n    /* \"#utility.yul\":1239:1318   */\n  pop\n  jump\t// out\n    /* \"Campaign.sol\":455:2336  contract Campaign {... */\ntag_6:\n  dataSize(sub_0)\n  dup1\n  dataOffset(sub_0)\n  0x00\n  codecopy\n  0x00\n  return\nstop\n\nsub_0: assembly {\n        /* \"Campaign.sol\":455:2336  contract Campaign {... */\n      mstore(0x40, 0x80)\n      jumpi(tag_1, lt(calldatasize, 0x04))\n      shr(0xe0, calldataload(0x00))\n      dup1\n      0x8a9cfd55\n      gt\n      tag_11\n      jumpi\n      dup1\n      0x8a9cfd55\n      eq\n      tag_6\n      jumpi\n      dup1\n      0x937e09b1\n      eq\n      tag_7\n      jumpi\n      dup1\n      0xb9632689\n      eq\n      tag_8\n      jumpi\n      dup1\n      0xd7bb99ba\n      eq\n      tag_9\n      jumpi\n      dup1\n      0xd7d1bbdb\n      eq\n      tag_10\n      jumpi\n      jump(tag_1)\n    tag_11:\n      dup1\n      0x031b3677\n      eq\n      tag_2\n      jumpi\n      dup1\n      0x03441006\n      eq\n      tag_3\n      jumpi\n      dup1\n      0x481c6a75\n      eq\n      tag_4\n      jumpi\n      dup1\n      0x81d12c58\n      eq\n      tag_5\n      jumpi\n    tag_1:\n      0x00\n      dup1\n      revert\n        /* \"Campaign.sol\":763:802  mapping(address => bool) public funders */\n    tag_2:\n      callvalue\n      dup1\n      iszero\n      tag_12\n      jumpi\n      0x00\n      dup1\n      revert\n    tag_12:\n      pop\n      tag_13\n      0x04\n      dup1\n      calldatasize\n      sub\n      dup2\n      add\n      swap1\n      tag_14\n      swap2\n      swap1\n      tag_15\n      jump\t// in\n    tag_14:\n      tag_16\n      jump\t// in\n    tag_13:\n      mload(0x40)\n      tag_17\n      swap2\n      swap1\n      tag_18\n      jump\t// in\n    tag_17:\n      mload(0x40)\n      dup1\n      swap2\n      sub\n      swap1\n      return\n        /* \"Campaign.sol\":2019:2325  function finalizeRequest(uint _requestId) public restriced {... */\n    tag_3:\n      callvalue\n      dup1\n      iszero\n      tag_19\n      jumpi\n      0x00\n      dup1\n      revert\n    tag_19:\n      pop\n      tag_20\n      0x04\n      dup1\n      calldatasize\n      sub\n      dup2\n      add\n      swap1\n      tag_21\n      swap2\n      swap1\n      tag_22\n      jump\t// in\n    tag_21:\n      tag_23\n      jump\t// in\n    tag_20:\n      stop\n        /* \"Campaign.sol\":670:692  address public manager */\n    tag_4:\n      callvalue\n      dup1\n      iszero\n      tag_24\n      jumpi\n      0x00\n      dup1\n      revert\n    tag_24:\n      pop\n      tag_25\n      tag_26\n      jump\t// in\n    tag_25:\n      mload(0x40)\n      tag_27\n      swap2\n      swap1\n      tag_28\n      jump\t// in\n    tag_27:\n      mload(0x40)\n      dup1\n      swap2\n      sub\n      swap1\n      return\n        /* \"Campaign.sol\":639:664  Request[] public requests */\n    tag_5:\n      callvalue\n      dup1\n      iszero\n      tag_29\n      jumpi\n      0x00\n      dup1\n      revert\n    tag_29:\n      pop\n      tag_30\n      0x04\n      dup1\n      calldatasize\n      sub\n      dup2\n      add\n      swap1\n      tag_31\n      swap2\n      swap1\n      tag_22\n      jump\t// in\n    tag_31:\n      tag_32\n      jump\t// in\n    tag_30:\n      mload(0x40)\n      tag_33\n      swap6\n      swap5\n      swap4\n      swap3\n      swap2\n      swap1\n      tag_34\n      jump\t// in\n    tag_33:\n      mload(0x40)\n      dup1\n      swap2\n      sub\n      swap1\n      return\n        /* \"Campaign.sol\":1320:1676  function createRequest(string memory _description, uint _value, address _recipient) public restriced {... */\n    tag_6:\n      callvalue\n      dup1\n      iszero\n      tag_35\n      jumpi\n      0x00\n      dup1\n      revert\n    tag_35:\n      pop\n      tag_36\n      0x04\n      dup1\n      calldatasize\n      sub\n      dup2\n      add\n      swap1\n      tag_37\n      swap2\n      swap1\n      tag_38\n      jump\t// in\n    tag_37:\n      tag_39\n      jump\t// in\n    tag_36:\n      stop\n        /* \"Campaign.sol\":698:729  uint public minimumContribution */\n    tag_7:\n      callvalue\n      dup1\n      iszero\n      tag_40\n      jumpi\n      0x00\n      dup1\n      revert\n    tag_40:\n      pop\n      tag_41\n      tag_42\n      jump\t// in\n    tag_41:\n      mload(0x40)\n      tag_43\n      swap2\n      swap1\n      tag_44\n      jump\t// in\n    tag_43:\n      mload(0x40)\n      dup1\n      swap2\n      sub\n      swap1\n      return\n        /* \"Campaign.sol\":735:757  uint public numFunders */\n    tag_8:\n      callvalue\n      dup1\n      iszero\n      tag_45\n      jumpi\n      0x00\n      dup1\n      revert\n    tag_45:\n      pop\n      tag_46\n      tag_47\n      jump\t// in\n    tag_46:\n      mload(0x40)\n      tag_48\n      swap2\n      swap1\n      tag_44\n      jump\t// in\n    tag_48:\n      mload(0x40)\n      dup1\n      swap2\n      sub\n      swap1\n      return\n        /* \"Campaign.sol\":1118:1310  function contribute() public payable {... */\n    tag_9:\n      tag_49\n      tag_50\n      jump\t// in\n    tag_49:\n      stop\n        /* \"Campaign.sol\":1686:2009  function approveRequest(uint _requestId) public {... */\n    tag_10:\n      callvalue\n      dup1\n      iszero\n      tag_51\n      jumpi\n      0x00\n      dup1\n      revert\n    tag_51:\n      pop\n      tag_52\n      0x04\n      dup1\n      calldatasize\n      sub\n      dup2\n      add\n      swap1\n      tag_53\n      swap2\n      swap1\n      tag_22\n      jump\t// in\n    tag_53:\n      tag_54\n      jump\t// in\n    tag_52:\n      stop\n        /* \"Campaign.sol\":763:802  mapping(address => bool) public funders */\n    tag_16:\n      mstore(0x20, 0x04)\n      dup1\n      0x00\n      mstore\n      keccak256(0x00, 0x40)\n      0x00\n      swap2\n      pop\n      sload\n      swap1\n      0x0100\n      exp\n      swap1\n      div\n      0xff\n      and\n      dup2\n      jump\t// out\n        /* \"Campaign.sol\":2019:2325  function finalizeRequest(uint _requestId) public restriced {... */\n    tag_23:\n        /* \"Campaign.sol\":904:911  manager */\n      0x01\n      0x00\n      swap1\n      sload\n      swap1\n      0x0100\n      exp\n      swap1\n      div\n      0xffffffffffffffffffffffffffffffffffffffff\n      and\n        /* \"Campaign.sol\":890:911  msg.sender == manager */\n      0xffffffffffffffffffffffffffffffffffffffff\n      and\n        /* \"Campaign.sol\":890:900  msg.sender */\n      caller\n        /* \"Campaign.sol\":890:911  msg.sender == manager */\n      0xffffffffffffffffffffffffffffffffffffffff\n      and\n      eq\n        /* \"Campaign.sol\":882:912  require(msg.sender == manager) */\n      tag_56\n      jumpi\n      0x00\n      dup1\n      revert\n    tag_56:\n        /* \"Campaign.sol\":2088:2111  Request storage request */\n      0x00\n        /* \"Campaign.sol\":2114:2122  requests */\n      dup1\n        /* \"Campaign.sol\":2123:2133  _requestId */\n      dup3\n        /* \"Campaign.sol\":2114:2134  requests[_requestId] */\n      dup2\n      sload\n      dup2\n      lt\n      tag_58\n      jumpi\n      mstore(0x00, 0x4e487b7100000000000000000000000000000000000000000000000000000000)\n      mstore(0x04, 0x32)\n      revert(0x00, 0x24)\n    tag_58:\n      swap1\n      0x00\n      mstore\n      keccak256(0x00, 0x20)\n      swap1\n      0x04\n      mul\n      add\n        /* \"Campaign.sol\":2088:2134  Request storage request = requests[_requestId] */\n      swap1\n      pop\n        /* \"Campaign.sol\":2153:2160  request */\n      dup1\n        /* \"Campaign.sol\":2153:2169  request.complete */\n      0x02\n      add\n      0x14\n      swap1\n      sload\n      swap1\n      0x0100\n      exp\n      swap1\n      div\n      0xff\n      and\n        /* \"Campaign.sol\":2152:2169  !request.complete */\n      iszero\n        /* \"Campaign.sol\":2144:2170  require(!request.complete) */\n      tag_60\n      jumpi\n      0x00\n      dup1\n      revert\n    tag_60:\n        /* \"Campaign.sol\":2223:2224  2 */\n      0x02\n        /* \"Campaign.sol\":2212:2222  numFunders */\n      sload(0x03)\n        /* \"Campaign.sol\":2212:2224  numFunders/2 */\n      tag_61\n      swap2\n      swap1\n      tag_62\n      jump\t// in\n    tag_61:\n        /* \"Campaign.sol\":2188:2195  request */\n      dup2\n        /* \"Campaign.sol\":2188:2209  request.approvalCount */\n      0x03\n      add\n      sload\n        /* \"Campaign.sol\":2188:2224  request.approvalCount > numFunders/2 */\n      gt\n        /* \"Campaign.sol\":2180:2225  require(request.approvalCount > numFunders/2) */\n      tag_63\n      jumpi\n      0x00\n      dup1\n      revert\n    tag_63:\n        /* \"Campaign.sol\":2243:2250  request */\n      dup1\n        /* \"Campaign.sol\":2243:2260  request.recipient */\n      0x02\n      add\n      0x00\n      swap1\n      sload\n      swap1\n      0x0100\n      exp\n      swap1\n      div\n      0xffffffffffffffffffffffffffffffffffffffff\n      and\n        /* \"Campaign.sol\":2235:2270  payable(request.recipient).transfer */\n      0xffffffffffffffffffffffffffffffffffffffff\n      and\n        /* \"Campaign.sol\":2235:2285  payable(request.recipient).transfer(request.value) */\n      0x08fc\n        /* \"Campaign.sol\":2271:2278  request */\n      dup3\n        /* \"Campaign.sol\":2271:2284  request.value */\n      0x01\n      add\n      sload\n        /* \"Campaign.sol\":2235:2285  payable(request.recipient).transfer(request.value) */\n      swap1\n      dup2\n      iszero\n      mul\n      swap1\n      mload(0x40)\n      0x00\n      mload(0x40)\n      dup1\n      dup4\n      sub\n      dup2\n      dup6\n      dup9\n      dup9\n      call\n      swap4\n      pop\n      pop\n      pop\n      pop\n      iszero\n      dup1\n      iszero\n      tag_65\n      jumpi\n      returndatasize\n      0x00\n      dup1\n      returndatacopy\n      revert(0x00, returndatasize)\n    tag_65:\n      pop\n        /* \"Campaign.sol\":2314:2318  true */\n      0x01\n        /* \"Campaign.sol\":2295:2302  request */\n      dup2\n        /* \"Campaign.sol\":2295:2311  request.complete */\n      0x02\n      add\n      0x14\n        /* \"Campaign.sol\":2295:2318  request.complete = true */\n      0x0100\n      exp\n      dup2\n      sload\n      dup2\n      0xff\n      mul\n      not\n      and\n      swap1\n      dup4\n      iszero\n      iszero\n      mul\n      or\n      swap1\n      sstore\n      pop\n        /* \"Campaign.sol\":922:923  _ */\n      pop\n        /* \"Campaign.sol\":2019:2325  function finalizeRequest(uint _requestId) public restriced {... */\n      pop\n      jump\t// out\n        /* \"Campaign.sol\":670:692  address public manager */\n    tag_26:\n      0x01\n      0x00\n      swap1\n      sload\n      swap1\n      0x0100\n      exp\n      swap1\n      div\n      0xffffffffffffffffffffffffffffffffffffffff\n      and\n      dup2\n      jump\t// out\n        /* \"Campaign.sol\":639:664  Request[] public requests */\n    tag_32:\n      0x00\n      dup2\n      dup2\n      sload\n      dup2\n      lt\n      tag_66\n      jumpi\n      0x00\n      dup1\n      revert\n    tag_66:\n      swap1\n      0x00\n      mstore\n      keccak256(0x00, 0x20)\n      swap1\n      0x04\n      mul\n      add\n      0x00\n      swap2\n      pop\n      swap1\n      pop\n      dup1\n      0x00\n      add\n      dup1\n      sload\n      tag_68\n      swap1\n      tag_69\n      jump\t// in\n    tag_68:\n      dup1\n      0x1f\n      add\n      0x20\n      dup1\n      swap2\n      div\n      mul\n      0x20\n      add\n      mload(0x40)\n      swap1\n      dup2\n      add\n      0x40\n      mstore\n      dup1\n      swap3\n      swap2\n      swap1\n      dup2\n      dup2\n      mstore\n      0x20\n      add\n      dup3\n      dup1\n      sload\n      tag_70\n      swap1\n      tag_69\n      jump\t// in\n    tag_70:\n      dup1\n      iszero\n      tag_71\n      jumpi\n      dup1\n      0x1f\n      lt\n      tag_72\n      jumpi\n      0x0100\n      dup1\n      dup4\n      sload\n      div\n      mul\n      dup4\n      mstore\n      swap2\n      0x20\n      add\n      swap2\n      jump(tag_71)\n    tag_72:\n      dup3\n      add\n      swap2\n      swap1\n      0x00\n      mstore\n      keccak256(0x00, 0x20)\n      swap1\n    tag_73:\n      dup2\n      sload\n      dup2\n      mstore\n      swap1\n      0x01\n      add\n      swap1\n      0x20\n      add\n      dup1\n      dup4\n      gt\n      tag_73\n      jumpi\n      dup3\n      swap1\n      sub\n      0x1f\n      and\n      dup3\n      add\n      swap2\n    tag_71:\n      pop\n      pop\n      pop\n      pop\n      pop\n      swap1\n      dup1\n      0x01\n      add\n      sload\n      swap1\n      dup1\n      0x02\n      add\n      0x00\n      swap1\n      sload\n      swap1\n      0x0100\n      exp\n      swap1\n      div\n      0xffffffffffffffffffffffffffffffffffffffff\n      and\n      swap1\n      dup1\n      0x02\n      add\n      0x14\n      swap1\n      sload\n      swap1\n      0x0100\n      exp\n      swap1\n      div\n      0xff\n      and\n      swap1\n      dup1\n      0x03\n      add\n      sload\n      swap1\n      pop\n      dup6\n      jump\t// out\n        /* \"Campaign.sol\":1320:1676  function createRequest(string memory _description, uint _value, address _recipient) public restriced {... */\n    tag_39:\n        /* \"Campaign.sol\":904:911  manager */\n      0x01\n      0x00\n      swap1\n      sload\n      swap1\n      0x0100\n      exp\n      swap1\n      div\n      0xffffffffffffffffffffffffffffffffffffffff\n      and\n        /* \"Campaign.sol\":890:911  msg.sender == manager */\n      0xffffffffffffffffffffffffffffffffffffffff\n      and\n        /* \"Campaign.sol\":890:900  msg.sender */\n      caller\n        /* \"Campaign.sol\":890:911  msg.sender == manager */\n      0xffffffffffffffffffffffffffffffffffffffff\n      and\n      eq\n        /* \"Campaign.sol\":882:912  require(msg.sender == manager) */\n      tag_75\n      jumpi\n      0x00\n      dup1\n      revert\n    tag_75:\n        /* \"Campaign.sol\":1431:1456  Request memory newRequest */\n      0x00\n        /* \"Campaign.sol\":1459:1634  Request({... */\n      mload(0x40)\n      dup1\n      0xa0\n      add\n      0x40\n      mstore\n      dup1\n        /* \"Campaign.sol\":1493:1505  _description */\n      dup6\n        /* \"Campaign.sol\":1459:1634  Request({... */\n      dup2\n      mstore\n      0x20\n      add\n        /* \"Campaign.sol\":1525:1531  _value */\n      dup5\n        /* \"Campaign.sol\":1459:1634  Request({... */\n      dup2\n      mstore\n      0x20\n      add\n        /* \"Campaign.sol\":1556:1566  _recipient */\n      dup4\n        /* \"Campaign.sol\":1459:1634  Request({... */\n      0xffffffffffffffffffffffffffffffffffffffff\n      and\n      dup2\n      mstore\n      0x20\n      add\n        /* \"Campaign.sol\":1589:1594  false */\n      0x00\n        /* \"Campaign.sol\":1459:1634  Request({... */\n      iszero\n      iszero\n      dup2\n      mstore\n      0x20\n      add\n        /* \"Campaign.sol\":1622:1623  0 */\n      0x00\n        /* \"Campaign.sol\":1459:1634  Request({... */\n      dup2\n      mstore\n      pop\n        /* \"Campaign.sol\":1431:1634  Request memory newRequest = Request({... */\n      swap1\n      pop\n        /* \"Campaign.sol\":1644:1652  requests */\n      0x00\n        /* \"Campaign.sol\":1658:1668  newRequest */\n      dup2\n        /* \"Campaign.sol\":1644:1669  requests.push(newRequest) */\n      swap1\n      dup1\n      0x01\n      dup2\n      sload\n      add\n      dup1\n      dup3\n      sstore\n      dup1\n      swap2\n      pop\n      pop\n      0x01\n      swap1\n      sub\n      swap1\n      0x00\n      mstore\n      keccak256(0x00, 0x20)\n      swap1\n      0x04\n      mul\n      add\n      0x00\n      swap1\n      swap2\n      swap1\n      swap2\n      swap1\n      swap2\n      pop\n      0x00\n      dup3\n      add\n      mload\n      dup2\n      0x00\n      add\n      swap1\n      dup1\n      mload\n      swap1\n      0x20\n      add\n      swap1\n      tag_78\n      swap3\n      swap2\n      swap1\n      tag_79\n      jump\t// in\n    tag_78:\n      pop\n      0x20\n      dup3\n      add\n      mload\n      dup2\n      0x01\n      add\n      sstore\n      0x40\n      dup3\n      add\n      mload\n      dup2\n      0x02\n      add\n      exp(0x0100, 0x00)\n      dup2\n      sload\n      dup2\n      0xffffffffffffffffffffffffffffffffffffffff\n      mul\n      not\n      and\n      swap1\n      dup4\n      0xffffffffffffffffffffffffffffffffffffffff\n      and\n      mul\n      or\n      swap1\n      sstore\n      pop\n      0x60\n      dup3\n      add\n      mload\n      dup2\n      0x02\n      add\n      exp(0x0100, 0x14)\n      dup2\n      sload\n      dup2\n      0xff\n      mul\n      not\n      and\n      swap1\n      dup4\n      iszero\n      iszero\n      mul\n      or\n      swap1\n      sstore\n      pop\n      0x80\n      dup3\n      add\n      mload\n      dup2\n      0x03\n      add\n      sstore\n      pop\n      pop\n        /* \"Campaign.sol\":922:923  _ */\n      pop\n        /* \"Campaign.sol\":1320:1676  function createRequest(string memory _description, uint _value, address _recipient) public restriced {... */\n      pop\n      pop\n      pop\n      jump\t// out\n        /* \"Campaign.sol\":698:729  uint public minimumContribution */\n    tag_42:\n      sload(0x02)\n      dup2\n      jump\t// out\n        /* \"Campaign.sol\":735:757  uint public numFunders */\n    tag_47:\n      sload(0x03)\n      dup2\n      jump\t// out\n        /* \"Campaign.sol\":1118:1310  function contribute() public payable {... */\n    tag_50:\n        /* \"Campaign.sol\":1186:1205  minimumContribution */\n      sload(0x02)\n        /* \"Campaign.sol\":1173:1182  msg.value */\n      callvalue\n        /* \"Campaign.sol\":1173:1205  msg.value >= minimumContribution */\n      lt\n      iszero\n        /* \"Campaign.sol\":1165:1206  require(msg.value >= minimumContribution) */\n      tag_81\n      jumpi\n      0x00\n      dup1\n      revert\n    tag_81:\n        /* \"Campaign.sol\":1225:1232  funders */\n      0x04\n        /* \"Campaign.sol\":1225:1244  funders[msg.sender] */\n      0x00\n        /* \"Campaign.sol\":1233:1243  msg.sender */\n      caller\n        /* \"Campaign.sol\":1225:1244  funders[msg.sender] */\n      0xffffffffffffffffffffffffffffffffffffffff\n      and\n      0xffffffffffffffffffffffffffffffffffffffff\n      and\n      dup2\n      mstore\n      0x20\n      add\n      swap1\n      dup2\n      mstore\n      0x20\n      add\n      0x00\n      keccak256\n      0x00\n      swap1\n      sload\n      swap1\n      0x0100\n      exp\n      swap1\n      div\n      0xff\n      and\n        /* \"Campaign.sol\":1224:1244  !funders[msg.sender] */\n      iszero\n        /* \"Campaign.sol\":1216:1245  require(!funders[msg.sender]) */\n      tag_82\n      jumpi\n      0x00\n      dup1\n      revert\n    tag_82:\n        /* \"Campaign.sol\":1277:1281  true */\n      0x01\n        /* \"Campaign.sol\":1255:1262  funders */\n      0x04\n        /* \"Campaign.sol\":1255:1274  funders[msg.sender] */\n      0x00\n        /* \"Campaign.sol\":1263:1273  msg.sender */\n      caller\n        /* \"Campaign.sol\":1255:1274  funders[msg.sender] */\n      0xffffffffffffffffffffffffffffffffffffffff\n      and\n      0xffffffffffffffffffffffffffffffffffffffff\n      and\n      dup2\n      mstore\n      0x20\n      add\n      swap1\n      dup2\n      mstore\n      0x20\n      add\n      0x00\n      keccak256\n      0x00\n        /* \"Campaign.sol\":1255:1281  funders[msg.sender] = true */\n      0x0100\n      exp\n      dup2\n      sload\n      dup2\n      0xff\n      mul\n      not\n      and\n      swap1\n      dup4\n      iszero\n      iszero\n      mul\n      or\n      swap1\n      sstore\n      pop\n        /* \"Campaign.sol\":1291:1301  numFunders */\n      0x03\n      0x00\n        /* \"Campaign.sol\":1291:1303  numFunders++ */\n      dup2\n      sload\n      dup1\n      swap3\n      swap2\n      swap1\n      tag_83\n      swap1\n      tag_84\n      jump\t// in\n    tag_83:\n      swap2\n      swap1\n      pop\n      sstore\n      pop\n        /* \"Campaign.sol\":1118:1310  function contribute() public payable {... */\n      jump\t// out\n        /* \"Campaign.sol\":1686:2009  function approveRequest(uint _requestId) public {... */\n    tag_54:\n        /* \"Campaign.sol\":1752:1759  funders */\n      0x04\n        /* \"Campaign.sol\":1752:1771  funders[msg.sender] */\n      0x00\n        /* \"Campaign.sol\":1760:1770  msg.sender */\n      caller\n        /* \"Campaign.sol\":1752:1771  funders[msg.sender] */\n      0xffffffffffffffffffffffffffffffffffffffff\n      and\n      0xffffffffffffffffffffffffffffffffffffffff\n      and\n      dup2\n      mstore\n      0x20\n      add\n      swap1\n      dup2\n      mstore\n      0x20\n      add\n      0x00\n      keccak256\n      0x00\n      swap1\n      sload\n      swap1\n      0x0100\n      exp\n      swap1\n      div\n      0xff\n      and\n        /* \"Campaign.sol\":1744:1772  require(funders[msg.sender]) */\n      tag_86\n      jumpi\n      0x00\n      dup1\n      revert\n    tag_86:\n        /* \"Campaign.sol\":1782:1799  bytes32 _voteHash */\n      0x00\n        /* \"Campaign.sol\":1829:1839  _requestId */\n      dup2\n        /* \"Campaign.sol\":1841:1851  msg.sender */\n      caller\n        /* \"Campaign.sol\":1812:1852  abi.encodePacked(_requestId, msg.sender) */\n      add(0x20, mload(0x40))\n      tag_87\n      swap3\n      swap2\n      swap1\n      tag_88\n      jump\t// in\n    tag_87:\n      mload(0x40)\n      0x20\n      dup2\n      dup4\n      sub\n      sub\n      dup2\n      mstore\n      swap1\n      0x40\n      mstore\n        /* \"Campaign.sol\":1802:1853  keccak256(abi.encodePacked(_requestId, msg.sender)) */\n      dup1\n      mload\n      swap1\n      0x20\n      add\n      keccak256\n        /* \"Campaign.sol\":1782:1853  bytes32 _voteHash = keccak256(abi.encodePacked(_requestId, msg.sender)) */\n      swap1\n      pop\n        /* \"Campaign.sol\":1894:1899  false */\n      0x00\n        /* \"Campaign.sol\":1871:1899  voteHash[_voteHash] == false */\n      iszero\n      iszero\n        /* \"Campaign.sol\":1871:1879  voteHash */\n      0x05\n        /* \"Campaign.sol\":1871:1890  voteHash[_voteHash] */\n      0x00\n        /* \"Campaign.sol\":1880:1889  _voteHash */\n      dup4\n        /* \"Campaign.sol\":1871:1890  voteHash[_voteHash] */\n      dup2\n      mstore\n      0x20\n      add\n      swap1\n      dup2\n      mstore\n      0x20\n      add\n      0x00\n      keccak256\n      0x00\n      swap1\n      sload\n      swap1\n      0x0100\n      exp\n      swap1\n      div\n      0xff\n      and\n        /* \"Campaign.sol\":1871:1899  voteHash[_voteHash] == false */\n      iszero\n      iszero\n      eq\n        /* \"Campaign.sol\":1863:1900  require(voteHash[_voteHash] == false) */\n      tag_89\n      jumpi\n      0x00\n      dup1\n      revert\n    tag_89:\n        /* \"Campaign.sol\":1952:1956  true */\n      0x01\n        /* \"Campaign.sol\":1930:1938  voteHash */\n      0x05\n        /* \"Campaign.sol\":1930:1949  voteHash[_voteHash] */\n      0x00\n        /* \"Campaign.sol\":1939:1948  _voteHash */\n      dup4\n        /* \"Campaign.sol\":1930:1949  voteHash[_voteHash] */\n      dup2\n      mstore\n      0x20\n      add\n      swap1\n      dup2\n      mstore\n      0x20\n      add\n      0x00\n      keccak256\n      0x00\n        /* \"Campaign.sol\":1930:1956  voteHash[_voteHash] = true */\n      0x0100\n      exp\n      dup2\n      sload\n      dup2\n      0xff\n      mul\n      not\n      and\n      swap1\n      dup4\n      iszero\n      iszero\n      mul\n      or\n      swap1\n      sstore\n      pop\n        /* \"Campaign.sol\":1966:1974  requests */\n      0x00\n        /* \"Campaign.sol\":1975:1985  _requestId */\n      dup3\n        /* \"Campaign.sol\":1966:1986  requests[_requestId] */\n      dup2\n      sload\n      dup2\n      lt\n      tag_90\n      jumpi\n      mstore(0x00, 0x4e487b7100000000000000000000000000000000000000000000000000000000)\n      mstore(0x04, 0x32)\n      revert(0x00, 0x24)\n    tag_90:\n      swap1\n      0x00\n      mstore\n      keccak256(0x00, 0x20)\n      swap1\n      0x04\n      mul\n      add\n        /* \"Campaign.sol\":1966:2000  requests[_requestId].approvalCount */\n      0x03\n      add\n      0x00\n        /* \"Campaign.sol\":1966:2002  requests[_requestId].approvalCount++ */\n      dup2\n      sload\n      dup1\n      swap3\n      swap2\n      swap1\n      tag_92\n      swap1\n      tag_84\n      jump\t// in\n    tag_92:\n      swap2\n      swap1\n      pop\n      sstore\n      pop\n        /* \"Campaign.sol\":1686:2009  function approveRequest(uint _requestId) public {... */\n      pop\n      pop\n      jump\t// out\n    tag_79:\n      dup3\n      dup1\n      sload\n      tag_93\n      swap1\n      tag_69\n      jump\t// in\n    tag_93:\n      swap1\n      0x00\n      mstore\n      keccak256(0x00, 0x20)\n      swap1\n      0x1f\n      add\n      0x20\n      swap1\n      div\n      dup2\n      add\n      swap3\n      dup3\n      tag_95\n      jumpi\n      0x00\n      dup6\n      sstore\n      jump(tag_94)\n    tag_95:\n      dup3\n      0x1f\n      lt\n      tag_96\n      jumpi\n      dup1\n      mload\n      not(0xff)\n      and\n      dup4\n      dup1\n      add\n      or\n      dup6\n      sstore\n      jump(tag_94)\n    tag_96:\n      dup3\n      dup1\n      add\n      0x01\n      add\n      dup6\n      sstore\n      dup3\n      iszero\n      tag_94\n      jumpi\n      swap2\n      dup3\n      add\n    tag_97:\n      dup3\n      dup2\n      gt\n      iszero\n      tag_98\n      jumpi\n      dup3\n      mload\n      dup3\n      sstore\n      swap2\n      0x20\n      add\n      swap2\n      swap1\n      0x01\n      add\n      swap1\n      jump(tag_97)\n    tag_98:\n    tag_94:\n      pop\n      swap1\n      pop\n      tag_99\n      swap2\n      swap1\n      tag_100\n      jump\t// in\n    tag_99:\n      pop\n      swap1\n      jump\t// out\n    tag_100:\n    tag_101:\n      dup1\n      dup3\n      gt\n      iszero\n      tag_102\n      jumpi\n      0x00\n      dup2\n      0x00\n      swap1\n      sstore\n      pop\n      0x01\n      add\n      jump(tag_101)\n    tag_102:\n      pop\n      swap1\n      jump\t// out\n        /* \"#utility.yul\":7:352   */\n    tag_104:\n      0x00\n        /* \"#utility.yul\":110:176   */\n      tag_106\n        /* \"#utility.yul\":126:175   */\n      tag_107\n        /* \"#utility.yul\":168:174   */\n      dup5\n        /* \"#utility.yul\":126:175   */\n      tag_108\n      jump\t// in\n    tag_107:\n        /* \"#utility.yul\":110:176   */\n      tag_109\n      jump\t// in\n    tag_106:\n        /* \"#utility.yul\":101:176   */\n      swap1\n      pop\n        /* \"#utility.yul\":199:205   */\n      dup3\n        /* \"#utility.yul\":192:197   */\n      dup2\n        /* \"#utility.yul\":185:206   */\n      mstore\n        /* \"#utility.yul\":237:241   */\n      0x20\n        /* \"#utility.yul\":230:235   */\n      dup2\n        /* \"#utility.yul\":226:242   */\n      add\n        /* \"#utility.yul\":275:278   */\n      dup5\n        /* \"#utility.yul\":266:272   */\n      dup5\n        /* \"#utility.yul\":261:264   */\n      dup5\n        /* \"#utility.yul\":257:273   */\n      add\n        /* \"#utility.yul\":254:279   */\n      gt\n        /* \"#utility.yul\":251:253   */\n      iszero\n      tag_110\n      jumpi\n        /* \"#utility.yul\":292:293   */\n      0x00\n        /* \"#utility.yul\":289:290   */\n      dup1\n        /* \"#utility.yul\":282:294   */\n      revert\n        /* \"#utility.yul\":251:253   */\n    tag_110:\n        /* \"#utility.yul\":305:346   */\n      tag_111\n        /* \"#utility.yul\":339:345   */\n      dup5\n        /* \"#utility.yul\":334:337   */\n      dup3\n        /* \"#utility.yul\":329:332   */\n      dup6\n        /* \"#utility.yul\":305:346   */\n      tag_112\n      jump\t// in\n    tag_111:\n        /* \"#utility.yul\":91:352   */\n      pop\n      swap4\n      swap3\n      pop\n      pop\n      pop\n      jump\t// out\n        /* \"#utility.yul\":358:497   */\n    tag_113:\n      0x00\n        /* \"#utility.yul\":442:448   */\n      dup2\n        /* \"#utility.yul\":429:449   */\n      calldataload\n        /* \"#utility.yul\":420:449   */\n      swap1\n      pop\n        /* \"#utility.yul\":458:491   */\n      tag_115\n        /* \"#utility.yul\":485:490   */\n      dup2\n        /* \"#utility.yul\":458:491   */\n      tag_116\n      jump\t// in\n    tag_115:\n        /* \"#utility.yul\":410:497   */\n      swap3\n      swap2\n      pop\n      pop\n      jump\t// out\n        /* \"#utility.yul\":517:790   */\n    tag_117:\n      0x00\n        /* \"#utility.yul\":622:625   */\n      dup3\n        /* \"#utility.yul\":615:619   */\n      0x1f\n        /* \"#utility.yul\":607:613   */\n      dup4\n        /* \"#utility.yul\":603:620   */\n      add\n        /* \"#utility.yul\":599:626   */\n      slt\n        /* \"#utility.yul\":589:591   */\n      tag_119\n      jumpi\n        /* \"#utility.yul\":640:641   */\n      0x00\n        /* \"#utility.yul\":637:638   */\n      dup1\n        /* \"#utility.yul\":630:642   */\n      revert\n        /* \"#utility.yul\":589:591   */\n    tag_119:\n        /* \"#utility.yul\":680:686   */\n      dup2\n        /* \"#utility.yul\":667:687   */\n      calldataload\n        /* \"#utility.yul\":705:784   */\n      tag_120\n        /* \"#utility.yul\":780:783   */\n      dup5\n        /* \"#utility.yul\":772:778   */\n      dup3\n        /* \"#utility.yul\":765:769   */\n      0x20\n        /* \"#utility.yul\":757:763   */\n      dup7\n        /* \"#utility.yul\":753:770   */\n      add\n        /* \"#utility.yul\":705:784   */\n      tag_104\n      jump\t// in\n    tag_120:\n        /* \"#utility.yul\":696:784   */\n      swap2\n      pop\n        /* \"#utility.yul\":579:790   */\n      pop\n      swap3\n      swap2\n      pop\n      pop\n      jump\t// out\n        /* \"#utility.yul\":796:935   */\n    tag_121:\n      0x00\n        /* \"#utility.yul\":880:886   */\n      dup2\n        /* \"#utility.yul\":867:887   */\n      calldataload\n        /* \"#utility.yul\":858:887   */\n      swap1\n      pop\n        /* \"#utility.yul\":896:929   */\n      tag_123\n        /* \"#utility.yul\":923:928   */\n      dup2\n        /* \"#utility.yul\":896:929   */\n      tag_124\n      jump\t// in\n    tag_123:\n        /* \"#utility.yul\":848:935   */\n      swap3\n      swap2\n      pop\n      pop\n      jump\t// out\n        /* \"#utility.yul\":941:1203   */\n    tag_15:\n      0x00\n        /* \"#utility.yul\":1049:1051   */\n      0x20\n        /* \"#utility.yul\":1037:1046   */\n      dup3\n        /* \"#utility.yul\":1028:1035   */\n      dup5\n        /* \"#utility.yul\":1024:1047   */\n      sub\n        /* \"#utility.yul\":1020:1052   */\n      slt\n        /* \"#utility.yul\":1017:1019   */\n      iszero\n      tag_126\n      jumpi\n        /* \"#utility.yul\":1065:1066   */\n      0x00\n        /* \"#utility.yul\":1062:1063   */\n      dup1\n        /* \"#utility.yul\":1055:1067   */\n      revert\n        /* \"#utility.yul\":1017:1019   */\n    tag_126:\n        /* \"#utility.yul\":1108:1109   */\n      0x00\n        /* \"#utility.yul\":1133:1186   */\n      tag_127\n        /* \"#utility.yul\":1178:1185   */\n      dup5\n        /* \"#utility.yul\":1169:1175   */\n      dup3\n        /* \"#utility.yul\":1158:1167   */\n      dup6\n        /* \"#utility.yul\":1154:1176   */\n      add\n        /* \"#utility.yul\":1133:1186   */\n      tag_113\n      jump\t// in\n    tag_127:\n        /* \"#utility.yul\":1123:1186   */\n      swap2\n      pop\n        /* \"#utility.yul\":1079:1196   */\n      pop\n        /* \"#utility.yul\":1007:1203   */\n      swap3\n      swap2\n      pop\n      pop\n      jump\t// out\n        /* \"#utility.yul\":1209:1874   */\n    tag_38:\n      0x00\n      dup1\n      0x00\n        /* \"#utility.yul\":1361:1363   */\n      0x60\n        /* \"#utility.yul\":1349:1358   */\n      dup5\n        /* \"#utility.yul\":1340:1347   */\n      dup7\n        /* \"#utility.yul\":1336:1359   */\n      sub\n        /* \"#utility.yul\":1332:1364   */\n      slt\n        /* \"#utility.yul\":1329:1331   */\n      iszero\n      tag_129\n      jumpi\n        /* \"#utility.yul\":1377:1378   */\n      0x00\n        /* \"#utility.yul\":1374:1375   */\n      dup1\n        /* \"#utility.yul\":1367:1379   */\n      revert\n        /* \"#utility.yul\":1329:1331   */\n    tag_129:\n        /* \"#utility.yul\":1448:1449   */\n      0x00\n        /* \"#utility.yul\":1437:1446   */\n      dup5\n        /* \"#utility.yul\":1433:1450   */\n      add\n        /* \"#utility.yul\":1420:1451   */\n      calldataload\n        /* \"#utility.yul\":1478:1496   */\n      0xffffffffffffffff\n        /* \"#utility.yul\":1470:1476   */\n      dup2\n        /* \"#utility.yul\":1467:1497   */\n      gt\n        /* \"#utility.yul\":1464:1466   */\n      iszero\n      tag_130\n      jumpi\n        /* \"#utility.yul\":1510:1511   */\n      0x00\n        /* \"#utility.yul\":1507:1508   */\n      dup1\n        /* \"#utility.yul\":1500:1512   */\n      revert\n        /* \"#utility.yul\":1464:1466   */\n    tag_130:\n        /* \"#utility.yul\":1538:1601   */\n      tag_131\n        /* \"#utility.yul\":1593:1600   */\n      dup7\n        /* \"#utility.yul\":1584:1590   */\n      dup3\n        /* \"#utility.yul\":1573:1582   */\n      dup8\n        /* \"#utility.yul\":1569:1591   */\n      add\n        /* \"#utility.yul\":1538:1601   */\n      tag_117\n      jump\t// in\n    tag_131:\n        /* \"#utility.yul\":1528:1601   */\n      swap4\n      pop\n        /* \"#utility.yul\":1391:1611   */\n      pop\n        /* \"#utility.yul\":1650:1652   */\n      0x20\n        /* \"#utility.yul\":1676:1729   */\n      tag_132\n        /* \"#utility.yul\":1721:1728   */\n      dup7\n        /* \"#utility.yul\":1712:1718   */\n      dup3\n        /* \"#utility.yul\":1701:1710   */\n      dup8\n        /* \"#utility.yul\":1697:1719   */\n      add\n        /* \"#utility.yul\":1676:1729   */\n      tag_121\n      jump\t// in\n    tag_132:\n        /* \"#utility.yul\":1666:1729   */\n      swap3\n      pop\n        /* \"#utility.yul\":1621:1739   */\n      pop\n        /* \"#utility.yul\":1778:1780   */\n      0x40\n        /* \"#utility.yul\":1804:1857   */\n      tag_133\n        /* \"#utility.yul\":1849:1856   */\n      dup7\n        /* \"#utility.yul\":1840:1846   */\n      dup3\n        /* \"#utility.yul\":1829:1838   */\n      dup8\n        /* \"#utility.yul\":1825:1847   */\n      add\n        /* \"#utility.yul\":1804:1857   */\n      tag_113\n      jump\t// in\n    tag_133:\n        /* \"#utility.yul\":1794:1857   */\n      swap2\n      pop\n        /* \"#utility.yul\":1749:1867   */\n      pop\n        /* \"#utility.yul\":1319:1874   */\n      swap3\n      pop\n      swap3\n      pop\n      swap3\n      jump\t// out\n        /* \"#utility.yul\":1880:2142   */\n    tag_22:\n      0x00\n        /* \"#utility.yul\":1988:1990   */\n      0x20\n        /* \"#utility.yul\":1976:1985   */\n      dup3\n        /* \"#utility.yul\":1967:1974   */\n      dup5\n        /* \"#utility.yul\":1963:1986   */\n      sub\n        /* \"#utility.yul\":1959:1991   */\n      slt\n        /* \"#utility.yul\":1956:1958   */\n      iszero\n      tag_135\n      jumpi\n        /* \"#utility.yul\":2004:2005   */\n      0x00\n        /* \"#utility.yul\":2001:2002   */\n      dup1\n        /* \"#utility.yul\":1994:2006   */\n      revert\n        /* \"#utility.yul\":1956:1958   */\n    tag_135:\n        /* \"#utility.yul\":2047:2048   */\n      0x00\n        /* \"#utility.yul\":2072:2125   */\n      tag_136\n        /* \"#utility.yul\":2117:2124   */\n      dup5\n        /* \"#utility.yul\":2108:2114   */\n      dup3\n        /* \"#utility.yul\":2097:2106   */\n      dup6\n        /* \"#utility.yul\":2093:2115   */\n      add\n        /* \"#utility.yul\":2072:2125   */\n      tag_121\n      jump\t// in\n    tag_136:\n        /* \"#utility.yul\":2062:2125   */\n      swap2\n      pop\n        /* \"#utility.yul\":2018:2135   */\n      pop\n        /* \"#utility.yul\":1946:2142   */\n      swap3\n      swap2\n      pop\n      pop\n      jump\t// out\n        /* \"#utility.yul\":2148:2266   */\n    tag_137:\n        /* \"#utility.yul\":2235:2259   */\n      tag_139\n        /* \"#utility.yul\":2253:2258   */\n      dup2\n        /* \"#utility.yul\":2235:2259   */\n      tag_140\n      jump\t// in\n    tag_139:\n        /* \"#utility.yul\":2230:2233   */\n      dup3\n        /* \"#utility.yul\":2223:2260   */\n      mstore\n        /* \"#utility.yul\":2213:2266   */\n      pop\n      pop\n      jump\t// out\n        /* \"#utility.yul\":2272:2429   */\n    tag_141:\n        /* \"#utility.yul\":2377:2422   */\n      tag_143\n        /* \"#utility.yul\":2397:2421   */\n      tag_144\n        /* \"#utility.yul\":2415:2420   */\n      dup3\n        /* \"#utility.yul\":2397:2421   */\n      tag_140\n      jump\t// in\n    tag_144:\n        /* \"#utility.yul\":2377:2422   */\n      tag_145\n      jump\t// in\n    tag_143:\n        /* \"#utility.yul\":2372:2375   */\n      dup3\n        /* \"#utility.yul\":2365:2423   */\n      mstore\n        /* \"#utility.yul\":2355:2429   */\n      pop\n      pop\n      jump\t// out\n        /* \"#utility.yul\":2435:2544   */\n    tag_146:\n        /* \"#utility.yul\":2516:2537   */\n      tag_148\n        /* \"#utility.yul\":2531:2536   */\n      dup2\n        /* \"#utility.yul\":2516:2537   */\n      tag_149\n      jump\t// in\n    tag_148:\n        /* \"#utility.yul\":2511:2514   */\n      dup3\n        /* \"#utility.yul\":2504:2538   */\n      mstore\n        /* \"#utility.yul\":2494:2544   */\n      pop\n      pop\n      jump\t// out\n        /* \"#utility.yul\":2550:2914   */\n    tag_150:\n      0x00\n        /* \"#utility.yul\":2666:2705   */\n      tag_152\n        /* \"#utility.yul\":2699:2704   */\n      dup3\n        /* \"#utility.yul\":2666:2705   */\n      tag_153\n      jump\t// in\n    tag_152:\n        /* \"#utility.yul\":2721:2792   */\n      tag_154\n        /* \"#utility.yul\":2785:2791   */\n      dup2\n        /* \"#utility.yul\":2780:2783   */\n      dup6\n        /* \"#utility.yul\":2721:2792   */\n      tag_155\n      jump\t// in\n    tag_154:\n        /* \"#utility.yul\":2714:2792   */\n      swap4\n      pop\n        /* \"#utility.yul\":2801:2853   */\n      tag_156\n        /* \"#utility.yul\":2846:2852   */\n      dup2\n        /* \"#utility.yul\":2841:2844   */\n      dup6\n        /* \"#utility.yul\":2834:2838   */\n      0x20\n        /* \"#utility.yul\":2827:2832   */\n      dup7\n        /* \"#utility.yul\":2823:2839   */\n      add\n        /* \"#utility.yul\":2801:2853   */\n      tag_157\n      jump\t// in\n    tag_156:\n        /* \"#utility.yul\":2878:2907   */\n      tag_158\n        /* \"#utility.yul\":2900:2906   */\n      dup2\n        /* \"#utility.yul\":2878:2907   */\n      tag_159\n      jump\t// in\n    tag_158:\n        /* \"#utility.yul\":2873:2876   */\n      dup5\n        /* \"#utility.yul\":2869:2908   */\n      add\n        /* \"#utility.yul\":2862:2908   */\n      swap2\n      pop\n        /* \"#utility.yul\":2642:2914   */\n      pop\n      swap3\n      swap2\n      pop\n      pop\n      jump\t// out\n        /* \"#utility.yul\":2920:3038   */\n    tag_160:\n        /* \"#utility.yul\":3007:3031   */\n      tag_162\n        /* \"#utility.yul\":3025:3030   */\n      dup2\n        /* \"#utility.yul\":3007:3031   */\n      tag_163\n      jump\t// in\n    tag_162:\n        /* \"#utility.yul\":3002:3005   */\n      dup3\n        /* \"#utility.yul\":2995:3032   */\n      mstore\n        /* \"#utility.yul\":2985:3038   */\n      pop\n      pop\n      jump\t// out\n        /* \"#utility.yul\":3044:3201   */\n    tag_164:\n        /* \"#utility.yul\":3149:3194   */\n      tag_166\n        /* \"#utility.yul\":3169:3193   */\n      tag_167\n        /* \"#utility.yul\":3187:3192   */\n      dup3\n        /* \"#utility.yul\":3169:3193   */\n      tag_163\n      jump\t// in\n    tag_167:\n        /* \"#utility.yul\":3149:3194   */\n      tag_168\n      jump\t// in\n    tag_166:\n        /* \"#utility.yul\":3144:3147   */\n      dup3\n        /* \"#utility.yul\":3137:3195   */\n      mstore\n        /* \"#utility.yul\":3127:3201   */\n      pop\n      pop\n      jump\t// out\n        /* \"#utility.yul\":3207:3604   */\n    tag_88:\n      0x00\n        /* \"#utility.yul\":3362:3437   */\n      tag_170\n        /* \"#utility.yul\":3433:3436   */\n      dup3\n        /* \"#utility.yul\":3424:3430   */\n      dup6\n        /* \"#utility.yul\":3362:3437   */\n      tag_164\n      jump\t// in\n    tag_170:\n        /* \"#utility.yul\":3462:3464   */\n      0x20\n        /* \"#utility.yul\":3457:3460   */\n      dup3\n        /* \"#utility.yul\":3453:3465   */\n      add\n        /* \"#utility.yul\":3446:3465   */\n      swap2\n      pop\n        /* \"#utility.yul\":3475:3550   */\n      tag_171\n        /* \"#utility.yul\":3546:3549   */\n      dup3\n        /* \"#utility.yul\":3537:3543   */\n      dup5\n        /* \"#utility.yul\":3475:3550   */\n      tag_141\n      jump\t// in\n    tag_171:\n        /* \"#utility.yul\":3575:3577   */\n      0x14\n        /* \"#utility.yul\":3570:3573   */\n      dup3\n        /* \"#utility.yul\":3566:3578   */\n      add\n        /* \"#utility.yul\":3559:3578   */\n      swap2\n      pop\n        /* \"#utility.yul\":3595:3598   */\n      dup2\n        /* \"#utility.yul\":3588:3598   */\n      swap1\n      pop\n        /* \"#utility.yul\":3351:3604   */\n      swap4\n      swap3\n      pop\n      pop\n      pop\n      jump\t// out\n        /* \"#utility.yul\":3610:3832   */\n    tag_28:\n      0x00\n        /* \"#utility.yul\":3741:3743   */\n      0x20\n        /* \"#utility.yul\":3730:3739   */\n      dup3\n        /* \"#utility.yul\":3726:3744   */\n      add\n        /* \"#utility.yul\":3718:3744   */\n      swap1\n      pop\n        /* \"#utility.yul\":3754:3825   */\n      tag_173\n        /* \"#utility.yul\":3822:3823   */\n      0x00\n        /* \"#utility.yul\":3811:3820   */\n      dup4\n        /* \"#utility.yul\":3807:3824   */\n      add\n        /* \"#utility.yul\":3798:3804   */\n      dup5\n        /* \"#utility.yul\":3754:3825   */\n      tag_137\n      jump\t// in\n    tag_173:\n        /* \"#utility.yul\":3708:3832   */\n      swap3\n      swap2\n      pop\n      pop\n      jump\t// out\n        /* \"#utility.yul\":3838:4048   */\n    tag_18:\n      0x00\n        /* \"#utility.yul\":3963:3965   */\n      0x20\n        /* \"#utility.yul\":3952:3961   */\n      dup3\n        /* \"#utility.yul\":3948:3966   */\n      add\n        /* \"#utility.yul\":3940:3966   */\n      swap1\n      pop\n        /* \"#utility.yul\":3976:4041   */\n      tag_175\n        /* \"#utility.yul\":4038:4039   */\n      0x00\n        /* \"#utility.yul\":4027:4036   */\n      dup4\n        /* \"#utility.yul\":4023:4040   */\n      add\n        /* \"#utility.yul\":4014:4020   */\n      dup5\n        /* \"#utility.yul\":3976:4041   */\n      tag_146\n      jump\t// in\n    tag_175:\n        /* \"#utility.yul\":3930:4048   */\n      swap3\n      swap2\n      pop\n      pop\n      jump\t// out\n        /* \"#utility.yul\":4054:4797   */\n    tag_34:\n      0x00\n        /* \"#utility.yul\":4311:4314   */\n      0xa0\n        /* \"#utility.yul\":4300:4309   */\n      dup3\n        /* \"#utility.yul\":4296:4315   */\n      add\n        /* \"#utility.yul\":4288:4315   */\n      swap1\n      pop\n        /* \"#utility.yul\":4361:4370   */\n      dup2\n        /* \"#utility.yul\":4355:4359   */\n      dup2\n        /* \"#utility.yul\":4351:4371   */\n      sub\n        /* \"#utility.yul\":4347:4348   */\n      0x00\n        /* \"#utility.yul\":4336:4345   */\n      dup4\n        /* \"#utility.yul\":4332:4349   */\n      add\n        /* \"#utility.yul\":4325:4372   */\n      mstore\n        /* \"#utility.yul\":4389:4467   */\n      tag_177\n        /* \"#utility.yul\":4462:4466   */\n      dup2\n        /* \"#utility.yul\":4453:4459   */\n      dup9\n        /* \"#utility.yul\":4389:4467   */\n      tag_150\n      jump\t// in\n    tag_177:\n        /* \"#utility.yul\":4381:4467   */\n      swap1\n      pop\n        /* \"#utility.yul\":4477:4549   */\n      tag_178\n        /* \"#utility.yul\":4545:4547   */\n      0x20\n        /* \"#utility.yul\":4534:4543   */\n      dup4\n        /* \"#utility.yul\":4530:4548   */\n      add\n        /* \"#utility.yul\":4521:4527   */\n      dup8\n        /* \"#utility.yul\":4477:4549   */\n      tag_160\n      jump\t// in\n    tag_178:\n        /* \"#utility.yul\":4559:4631   */\n      tag_179\n        /* \"#utility.yul\":4627:4629   */\n      0x40\n        /* \"#utility.yul\":4616:4625   */\n      dup4\n        /* \"#utility.yul\":4612:4630   */\n      add\n        /* \"#utility.yul\":4603:4609   */\n      dup7\n        /* \"#utility.yul\":4559:4631   */\n      tag_137\n      jump\t// in\n    tag_179:\n        /* \"#utility.yul\":4641:4707   */\n      tag_180\n        /* \"#utility.yul\":4703:4705   */\n      0x60\n        /* \"#utility.yul\":4692:4701   */\n      dup4\n        /* \"#utility.yul\":4688:4706   */\n      add\n        /* \"#utility.yul\":4679:4685   */\n      dup6\n        /* \"#utility.yul\":4641:4707   */\n      tag_146\n      jump\t// in\n    tag_180:\n        /* \"#utility.yul\":4717:4790   */\n      tag_181\n        /* \"#utility.yul\":4785:4788   */\n      0x80\n        /* \"#utility.yul\":4774:4783   */\n      dup4\n        /* \"#utility.yul\":4770:4789   */\n      add\n        /* \"#utility.yul\":4761:4767   */\n      dup5\n        /* \"#utility.yul\":4717:4790   */\n      tag_160\n      jump\t// in\n    tag_181:\n        /* \"#utility.yul\":4278:4797   */\n      swap7\n      swap6\n      pop\n      pop\n      pop\n      pop\n      pop\n      pop\n      jump\t// out\n        /* \"#utility.yul\":4803:5025   */\n    tag_44:\n      0x00\n        /* \"#utility.yul\":4934:4936   */\n      0x20\n        /* \"#utility.yul\":4923:4932   */\n      dup3\n        /* \"#utility.yul\":4919:4937   */\n      add\n        /* \"#utility.yul\":4911:4937   */\n      swap1\n      pop\n        /* \"#utility.yul\":4947:5018   */\n      tag_183\n        /* \"#utility.yul\":5015:5016   */\n      0x00\n        /* \"#utility.yul\":5004:5013   */\n      dup4\n        /* \"#utility.yul\":5000:5017   */\n      add\n        /* \"#utility.yul\":4991:4997   */\n      dup5\n        /* \"#utility.yul\":4947:5018   */\n      tag_160\n      jump\t// in\n    tag_183:\n        /* \"#utility.yul\":4901:5025   */\n      swap3\n      swap2\n      pop\n      pop\n      jump\t// out\n        /* \"#utility.yul\":5031:5160   */\n    tag_109:\n      0x00\n        /* \"#utility.yul\":5092:5112   */\n      tag_185\n      tag_186\n      jump\t// in\n    tag_185:\n        /* \"#utility.yul\":5082:5112   */\n      swap1\n      pop\n        /* \"#utility.yul\":5121:5154   */\n      tag_187\n        /* \"#utility.yul\":5149:5153   */\n      dup3\n        /* \"#utility.yul\":5141:5147   */\n      dup3\n        /* \"#utility.yul\":5121:5154   */\n      tag_188\n      jump\t// in\n    tag_187:\n        /* \"#utility.yul\":5072:5160   */\n      swap2\n      swap1\n      pop\n      jump\t// out\n        /* \"#utility.yul\":5166:5241   */\n    tag_186:\n      0x00\n        /* \"#utility.yul\":5232:5234   */\n      0x40\n        /* \"#utility.yul\":5226:5235   */\n      mload\n        /* \"#utility.yul\":5216:5235   */\n      swap1\n      pop\n        /* \"#utility.yul\":5206:5241   */\n      swap1\n      jump\t// out\n        /* \"#utility.yul\":5247:5555   */\n    tag_108:\n      0x00\n        /* \"#utility.yul\":5399:5417   */\n      0xffffffffffffffff\n        /* \"#utility.yul\":5391:5397   */\n      dup3\n        /* \"#utility.yul\":5388:5418   */\n      gt\n        /* \"#utility.yul\":5385:5387   */\n      iszero\n      tag_191\n      jumpi\n        /* \"#utility.yul\":5421:5439   */\n      tag_192\n      tag_193\n      jump\t// in\n    tag_192:\n        /* \"#utility.yul\":5385:5387   */\n    tag_191:\n        /* \"#utility.yul\":5459:5488   */\n      tag_194\n        /* \"#utility.yul\":5481:5487   */\n      dup3\n        /* \"#utility.yul\":5459:5488   */\n      tag_159\n      jump\t// in\n    tag_194:\n        /* \"#utility.yul\":5451:5488   */\n      swap1\n      pop\n        /* \"#utility.yul\":5543:5547   */\n      0x20\n        /* \"#utility.yul\":5537:5541   */\n      dup2\n        /* \"#utility.yul\":5533:5548   */\n      add\n        /* \"#utility.yul\":5525:5548   */\n      swap1\n      pop\n        /* \"#utility.yul\":5314:5555   */\n      swap2\n      swap1\n      pop\n      jump\t// out\n        /* \"#utility.yul\":5561:5660   */\n    tag_153:\n      0x00\n        /* \"#utility.yul\":5647:5652   */\n      dup2\n        /* \"#utility.yul\":5641:5653   */\n      mload\n        /* \"#utility.yul\":5631:5653   */\n      swap1\n      pop\n        /* \"#utility.yul\":5620:5660   */\n      swap2\n      swap1\n      pop\n      jump\t// out\n        /* \"#utility.yul\":5666:5835   */\n    tag_155:\n      0x00\n        /* \"#utility.yul\":5784:5790   */\n      dup3\n        /* \"#utility.yul\":5779:5782   */\n      dup3\n        /* \"#utility.yul\":5772:5791   */\n      mstore\n        /* \"#utility.yul\":5824:5828   */\n      0x20\n        /* \"#utility.yul\":5819:5822   */\n      dup3\n        /* \"#utility.yul\":5815:5829   */\n      add\n        /* \"#utility.yul\":5800:5829   */\n      swap1\n      pop\n        /* \"#utility.yul\":5762:5835   */\n      swap3\n      swap2\n      pop\n      pop\n      jump\t// out\n        /* \"#utility.yul\":5841:6026   */\n    tag_62:\n      0x00\n        /* \"#utility.yul\":5898:5918   */\n      tag_198\n        /* \"#utility.yul\":5916:5917   */\n      dup3\n        /* \"#utility.yul\":5898:5918   */\n      tag_163\n      jump\t// in\n    tag_198:\n        /* \"#utility.yul\":5893:5918   */\n      swap2\n      pop\n        /* \"#utility.yul\":5932:5952   */\n      tag_199\n        /* \"#utility.yul\":5950:5951   */\n      dup4\n        /* \"#utility.yul\":5932:5952   */\n      tag_163\n      jump\t// in\n    tag_199:\n        /* \"#utility.yul\":5927:5952   */\n      swap3\n      pop\n        /* \"#utility.yul\":5971:5972   */\n      dup3\n        /* \"#utility.yul\":5961:5963   */\n      tag_200\n      jumpi\n        /* \"#utility.yul\":5976:5994   */\n      tag_201\n      tag_202\n      jump\t// in\n    tag_201:\n        /* \"#utility.yul\":5961:5963   */\n    tag_200:\n        /* \"#utility.yul\":6018:6019   */\n      dup3\n        /* \"#utility.yul\":6015:6016   */\n      dup3\n        /* \"#utility.yul\":6011:6020   */\n      div\n        /* \"#utility.yul\":6006:6020   */\n      swap1\n      pop\n        /* \"#utility.yul\":5883:6026   */\n      swap3\n      swap2\n      pop\n      pop\n      jump\t// out\n        /* \"#utility.yul\":6032:6128   */\n    tag_140:\n      0x00\n        /* \"#utility.yul\":6098:6122   */\n      tag_204\n        /* \"#utility.yul\":6116:6121   */\n      dup3\n        /* \"#utility.yul\":6098:6122   */\n      tag_205\n      jump\t// in\n    tag_204:\n        /* \"#utility.yul\":6087:6122   */\n      swap1\n      pop\n        /* \"#utility.yul\":6077:6128   */\n      swap2\n      swap1\n      pop\n      jump\t// out\n        /* \"#utility.yul\":6134:6224   */\n    tag_149:\n      0x00\n        /* \"#utility.yul\":6211:6216   */\n      dup2\n        /* \"#utility.yul\":6204:6217   */\n      iszero\n        /* \"#utility.yul\":6197:6218   */\n      iszero\n        /* \"#utility.yul\":6186:6218   */\n      swap1\n      pop\n        /* \"#utility.yul\":6176:6224   */\n      swap2\n      swap1\n      pop\n      jump\t// out\n        /* \"#utility.yul\":6230:6356   */\n    tag_205:\n      0x00\n        /* \"#utility.yul\":6307:6349   */\n      0xffffffffffffffffffffffffffffffffffffffff\n        /* \"#utility.yul\":6300:6305   */\n      dup3\n        /* \"#utility.yul\":6296:6350   */\n      and\n        /* \"#utility.yul\":6285:6350   */\n      swap1\n      pop\n        /* \"#utility.yul\":6275:6356   */\n      swap2\n      swap1\n      pop\n      jump\t// out\n        /* \"#utility.yul\":6362:6439   */\n    tag_163:\n      0x00\n        /* \"#utility.yul\":6428:6433   */\n      dup2\n        /* \"#utility.yul\":6417:6433   */\n      swap1\n      pop\n        /* \"#utility.yul\":6407:6439   */\n      swap2\n      swap1\n      pop\n      jump\t// out\n        /* \"#utility.yul\":6445:6599   */\n    tag_112:\n        /* \"#utility.yul\":6529:6535   */\n      dup3\n        /* \"#utility.yul\":6524:6527   */\n      dup2\n        /* \"#utility.yul\":6519:6522   */\n      dup4\n        /* \"#utility.yul\":6506:6536   */\n      calldatacopy\n        /* \"#utility.yul\":6591:6592   */\n      0x00\n        /* \"#utility.yul\":6582:6588   */\n      dup4\n        /* \"#utility.yul\":6577:6580   */\n      dup4\n        /* \"#utility.yul\":6573:6589   */\n      add\n        /* \"#utility.yul\":6566:6593   */\n      mstore\n        /* \"#utility.yul\":6496:6599   */\n      pop\n      pop\n      pop\n      jump\t// out\n        /* \"#utility.yul\":6605:6912   */\n    tag_157:\n        /* \"#utility.yul\":6673:6674   */\n      0x00\n        /* \"#utility.yul\":6683:6796   */\n    tag_211:\n        /* \"#utility.yul\":6697:6703   */\n      dup4\n        /* \"#utility.yul\":6694:6695   */\n      dup2\n        /* \"#utility.yul\":6691:6704   */\n      lt\n        /* \"#utility.yul\":6683:6796   */\n      iszero\n      tag_213\n      jumpi\n        /* \"#utility.yul\":6782:6783   */\n      dup1\n        /* \"#utility.yul\":6777:6780   */\n      dup3\n        /* \"#utility.yul\":6773:6784   */\n      add\n        /* \"#utility.yul\":6767:6785   */\n      mload\n        /* \"#utility.yul\":6763:6764   */\n      dup2\n        /* \"#utility.yul\":6758:6761   */\n      dup5\n        /* \"#utility.yul\":6754:6765   */\n      add\n        /* \"#utility.yul\":6747:6786   */\n      mstore\n        /* \"#utility.yul\":6719:6721   */\n      0x20\n        /* \"#utility.yul\":6716:6717   */\n      dup2\n        /* \"#utility.yul\":6712:6722   */\n      add\n        /* \"#utility.yul\":6707:6722   */\n      swap1\n      pop\n        /* \"#utility.yul\":6683:6796   */\n      jump(tag_211)\n    tag_213:\n        /* \"#utility.yul\":6814:6820   */\n      dup4\n        /* \"#utility.yul\":6811:6812   */\n      dup2\n        /* \"#utility.yul\":6808:6821   */\n      gt\n        /* \"#utility.yul\":6805:6807   */\n      iszero\n      tag_214\n      jumpi\n        /* \"#utility.yul\":6894:6895   */\n      0x00\n        /* \"#utility.yul\":6885:6891   */\n      dup5\n        /* \"#utility.yul\":6880:6883   */\n      dup5\n        /* \"#utility.yul\":6876:6892   */\n      add\n        /* \"#utility.yul\":6869:6896   */\n      mstore\n        /* \"#utility.yul\":6805:6807   */\n    tag_214:\n        /* \"#utility.yul\":6654:6912   */\n      pop\n      pop\n      pop\n      pop\n      jump\t// out\n        /* \"#utility.yul\":6918:7238   */\n    tag_69:\n      0x00\n        /* \"#utility.yul\":6999:7000   */\n      0x02\n        /* \"#utility.yul\":6993:6997   */\n      dup3\n        /* \"#utility.yul\":6989:7001   */\n      div\n        /* \"#utility.yul\":6979:7001   */\n      swap1\n      pop\n        /* \"#utility.yul\":7046:7047   */\n      0x01\n        /* \"#utility.yul\":7040:7044   */\n      dup3\n        /* \"#utility.yul\":7036:7048   */\n      and\n        /* \"#utility.yul\":7067:7085   */\n      dup1\n        /* \"#utility.yul\":7057:7059   */\n      tag_216\n      jumpi\n        /* \"#utility.yul\":7123:7127   */\n      0x7f\n        /* \"#utility.yul\":7115:7121   */\n      dup3\n        /* \"#utility.yul\":7111:7128   */\n      and\n        /* \"#utility.yul\":7101:7128   */\n      swap2\n      pop\n        /* \"#utility.yul\":7057:7059   */\n    tag_216:\n        /* \"#utility.yul\":7185:7187   */\n      0x20\n        /* \"#utility.yul\":7177:7183   */\n      dup3\n        /* \"#utility.yul\":7174:7188   */\n      lt\n        /* \"#utility.yul\":7154:7172   */\n      dup2\n        /* \"#utility.yul\":7151:7189   */\n      eq\n        /* \"#utility.yul\":7148:7150   */\n      iszero\n      tag_217\n      jumpi\n        /* \"#utility.yul\":7204:7222   */\n      tag_218\n      tag_219\n      jump\t// in\n    tag_218:\n        /* \"#utility.yul\":7148:7150   */\n    tag_217:\n        /* \"#utility.yul\":6969:7238   */\n      pop\n      swap2\n      swap1\n      pop\n      jump\t// out\n        /* \"#utility.yul\":7244:7525   */\n    tag_188:\n        /* \"#utility.yul\":7327:7354   */\n      tag_221\n        /* \"#utility.yul\":7349:7353   */\n      dup3\n        /* \"#utility.yul\":7327:7354   */\n      tag_159\n      jump\t// in\n    tag_221:\n        /* \"#utility.yul\":7319:7325   */\n      dup2\n        /* \"#utility.yul\":7315:7355   */\n      add\n        /* \"#utility.yul\":7457:7463   */\n      dup2\n        /* \"#utility.yul\":7445:7455   */\n      dup2\n        /* \"#utility.yul\":7442:7464   */\n      lt\n        /* \"#utility.yul\":7421:7439   */\n      0xffffffffffffffff\n        /* \"#utility.yul\":7409:7419   */\n      dup3\n        /* \"#utility.yul\":7406:7440   */\n      gt\n        /* \"#utility.yul\":7403:7465   */\n      or\n        /* \"#utility.yul\":7400:7402   */\n      iszero\n      tag_222\n      jumpi\n        /* \"#utility.yul\":7468:7486   */\n      tag_223\n      tag_193\n      jump\t// in\n    tag_223:\n        /* \"#utility.yul\":7400:7402   */\n    tag_222:\n        /* \"#utility.yul\":7508:7518   */\n      dup1\n        /* \"#utility.yul\":7504:7506   */\n      0x40\n        /* \"#utility.yul\":7497:7519   */\n      mstore\n        /* \"#utility.yul\":7287:7525   */\n      pop\n      pop\n      pop\n      jump\t// out\n        /* \"#utility.yul\":7531:7764   */\n    tag_84:\n      0x00\n        /* \"#utility.yul\":7593:7617   */\n      tag_225\n        /* \"#utility.yul\":7611:7616   */\n      dup3\n        /* \"#utility.yul\":7593:7617   */\n      tag_163\n      jump\t// in\n    tag_225:\n        /* \"#utility.yul\":7584:7617   */\n      swap2\n      pop\n        /* \"#utility.yul\":7639:7705   */\n      0xffffffffffffffffffffffffffffffffffffffffffffffffffffffffffffffff\n        /* \"#utility.yul\":7632:7637   */\n      dup3\n        /* \"#utility.yul\":7629:7706   */\n      eq\n        /* \"#utility.yul\":7626:7628   */\n      iszero\n      tag_226\n      jumpi\n        /* \"#utility.yul\":7709:7727   */\n      tag_227\n      tag_228\n      jump\t// in\n    tag_227:\n        /* \"#utility.yul\":7626:7628   */\n    tag_226:\n        /* \"#utility.yul\":7756:7757   */\n      0x01\n        /* \"#utility.yul\":7749:7754   */\n      dup3\n        /* \"#utility.yul\":7745:7758   */\n      add\n        /* \"#utility.yul\":7738:7758   */\n      swap1\n      pop\n        /* \"#utility.yul\":7574:7764   */\n      swap2\n      swap1\n      pop\n      jump\t// out\n        /* \"#utility.yul\":7770:7870   */\n    tag_145:\n      0x00\n        /* \"#utility.yul\":7838:7864   */\n      tag_230\n        /* \"#utility.yul\":7858:7863   */\n      dup3\n        /* \"#utility.yul\":7838:7864   */\n      tag_231\n      jump\t// in\n    tag_230:\n        /* \"#utility.yul\":7827:7864   */\n      swap1\n      pop\n        /* \"#utility.yul\":7817:7870   */\n      swap2\n      swap1\n      pop\n      jump\t// out\n        /* \"#utility.yul\":7876:7970   */\n    tag_231:\n      0x00\n        /* \"#utility.yul\":7944:7964   */\n      tag_233\n        /* \"#utility.yul\":7958:7963   */\n      dup3\n        /* \"#utility.yul\":7944:7964   */\n      tag_234\n      jump\t// in\n    tag_233:\n        /* \"#utility.yul\":7933:7964   */\n      swap1\n      pop\n        /* \"#utility.yul\":7923:7970   */\n      swap2\n      swap1\n      pop\n      jump\t// out\n        /* \"#utility.yul\":7976:8055   */\n    tag_168:\n      0x00\n        /* \"#utility.yul\":8044:8049   */\n      dup2\n        /* \"#utility.yul\":8033:8049   */\n      swap1\n      pop\n        /* \"#utility.yul\":8023:8055   */\n      swap2\n      swap1\n      pop\n      jump\t// out\n        /* \"#utility.yul\":8061:8241   */\n    tag_228:\n        /* \"#utility.yul\":8109:8186   */\n      0x4e487b7100000000000000000000000000000000000000000000000000000000\n        /* \"#utility.yul\":8106:8107   */\n      0x00\n        /* \"#utility.yul\":8099:8187   */\n      mstore\n        /* \"#utility.yul\":8206:8210   */\n      0x11\n        /* \"#utility.yul\":8203:8204   */\n      0x04\n        /* \"#utility.yul\":8196:8211   */\n      mstore\n        /* \"#utility.yul\":8230:8234   */\n      0x24\n        /* \"#utility.yul\":8227:8228   */\n      0x00\n        /* \"#utility.yul\":8220:8235   */\n      revert\n        /* \"#utility.yul\":8247:8427   */\n    tag_202:\n        /* \"#utility.yul\":8295:8372   */\n      0x4e487b7100000000000000000000000000000000000000000000000000000000\n        /* \"#utility.yul\":8292:8293   */\n      0x00\n        /* \"#utility.yul\":8285:8373   */\n      mstore\n        /* \"#utility.yul\":8392:8396   */\n      0x12\n        /* \"#utility.yul\":8389:8390   */\n      0x04\n        /* \"#utility.yul\":8382:8397   */\n      mstore\n        /* \"#utility.yul\":8416:8420   */\n      0x24\n        /* \"#utility.yul\":8413:8414   */\n      0x00\n        /* \"#utility.yul\":8406:8421   */\n      revert\n        /* \"#utility.yul\":8433:8613   */\n    tag_219:\n        /* \"#utility.yul\":8481:8558   */\n      0x4e487b7100000000000000000000000000000000000000000000000000000000\n        /* \"#utility.yul\":8478:8479   */\n      0x00\n        /* \"#utility.yul\":8471:8559   */\n      mstore\n        /* \"#utility.yul\":8578:8582   */\n      0x22\n        /* \"#utility.yul\":8575:8576   */\n      0x04\n        /* \"#utility.yul\":8568:8583   */\n      mstore\n        /* \"#utility.yul\":8602:8606   */\n      0x24\n        /* \"#utility.yul\":8599:8600   */\n      0x00\n        /* \"#utility.yul\":8592:8607   */\n      revert\n        /* \"#utility.yul\":8619:8799   */\n    tag_193:\n        /* \"#utility.yul\":8667:8744   */\n      0x4e487b7100000000000000000000000000000000000000000000000000000000\n        /* \"#utility.yul\":8664:8665   */\n      0x00\n        /* \"#utility.yul\":8657:8745   */\n      mstore\n        /* \"#utility.yul\":8764:8768   */\n      0x41\n        /* \"#utility.yul\":8761:8762   */\n      0x04\n        /* \"#utility.yul\":8754:8769   */\n      mstore\n        /* \"#utility.yul\":8788:8792   */\n      0x24\n        /* \"#utility.yul\":8785:8786   */\n      0x00\n        /* \"#utility.yul\":8778:8793   */\n      revert\n        /* \"#utility.yul\":8805:8907   */\n    tag_159:\n      0x00\n        /* \"#utility.yul\":8897:8899   */\n      0x1f\n        /* \"#utility.yul\":8893:8900   */\n      not\n        /* \"#utility.yul\":8888:8890   */\n      0x1f\n        /* \"#utility.yul\":8881:8886   */\n      dup4\n        /* \"#utility.yul\":8877:8891   */\n      add\n        /* \"#utility.yul\":8873:8901   */\n      and\n        /* \"#utility.yul\":8863:8901   */\n      swap1\n      pop\n        /* \"#utility.yul\":8853:8907   */\n      swap2\n      swap1\n      pop\n      jump\t// out\n        /* \"#utility.yul\":8913:9007   */\n    tag_234:\n      0x00\n        /* \"#utility.yul\":8994:8999   */\n      dup2\n        /* \"#utility.yul\":8990:8992   */\n      0x60\n        /* \"#utility.yul\":8986:9000   */\n      shl\n        /* \"#utility.yul\":8965:9000   */\n      swap1\n      pop\n        /* \"#utility.yul\":8955:9007   */\n      swap2\n      swap1\n      pop\n      jump\t// out\n        /* \"#utility.yul\":9013:9135   */\n    tag_116:\n        /* \"#utility.yul\":9086:9110   */\n      tag_243\n        /* \"#utility.yul\":9104:9109   */\n      dup2\n        /* \"#utility.yul\":9086:9110   */\n      tag_140\n      jump\t// in\n    tag_243:\n        /* \"#utility.yul\":9079:9084   */\n      dup2\n        /* \"#utility.yul\":9076:9111   */\n      eq\n        /* \"#utility.yul\":9066:9068   */\n      tag_244\n      jumpi\n        /* \"#utility.yul\":9125:9126   */\n      0x00\n        /* \"#utility.yul\":9122:9123   */\n      dup1\n        /* \"#utility.yul\":9115:9127   */\n      revert\n        /* \"#utility.yul\":9066:9068   */\n    tag_244:\n        /* \"#utility.yul\":9056:9135   */\n      pop\n      jump\t// out\n        /* \"#utility.yul\":9141:9263   */\n    tag_124:\n        /* \"#utility.yul\":9214:9238   */\n      tag_246\n        /* \"#utility.yul\":9232:9237   */\n      dup2\n        /* \"#utility.yul\":9214:9238   */\n      tag_163\n      jump\t// in\n    tag_246:\n        /* \"#utility.yul\":9207:9212   */\n      dup2\n        /* \"#utility.yul\":9204:9239   */\n      eq\n        /* \"#utility.yul\":9194:9196   */\n      tag_247\n      jumpi\n        /* \"#utility.yul\":9253:9254   */\n      0x00\n        /* \"#utility.yul\":9250:9251   */\n      dup1\n        /* \"#utility.yul\":9243:9255   */\n      revert\n        /* \"#utility.yul\":9194:9196   */\n    tag_247:\n        /* \"#utility.yul\":9184:9263   */\n      pop\n      jump\t// out\n\n    auxdata: 0xa2646970667358221220dc04153a3eeb123eac3e288147ecfe85017e9fb1a982c85b56ee04b65b377c6664736f6c63430008030033\n}\n","bytecode":{"linkReferences":{},"object":"60806040523480156200001157600080fd5b5060405162001071380380620010718339818101604052810190620000379190620000bd565b80600160006101000a81548173ffffffffffffffffffffffffffffffffffffffff021916908373ffffffffffffffffffffffffffffffffffffffff160217905550816002819055506000600381905550505062000170565b600081519050620000a0816200013c565b92915050565b600081519050620000b78162000156565b92915050565b60008060408385031215620000d157600080fd5b6000620000e185828601620000a6565b9250506020620000f4858286016200008f565b9150509250929050565b60006200010b8262000112565b9050919050565b600073ffffffffffffffffffffffffffffffffffffffff82169050919050565b6000819050919050565b6200014781620000fe565b81146200015357600080fd5b50565b620001618162000132565b81146200016d57600080fd5b50565b610ef180620001806000396000f3fe6080604052600436106100865760003560e01c80638a9cfd55116100595780638a9cfd551461015d578063937e09b114610186578063b9632689146101b1578063d7bb99ba146101dc578063d7d1bbdb146101e657610086565b8063031b36771461008b57806303441006146100c8578063481c6a75146100f157806381d12c581461011c575b600080fd5b34801561009757600080fd5b506100b260048036038101906100ad9190610988565b61020f565b6040516100bf9190610b1c565b60405180910390f35b3480156100d457600080fd5b506100ef60048036038101906100ea9190610a18565b61022f565b005b3480156100fd57600080fd5b5061010661039e565b6040516101139190610b01565b60405180910390f35b34801561012857600080fd5b50610143600480360381019061013e9190610a18565b6103c4565b604051610154959493929190610b37565b60405180910390f35b34801561016957600080fd5b50610184600480360381019061017f91906109b1565b6104bf565b005b34801561019257600080fd5b5061019b61062a565b6040516101a89190610b91565b60405180910390f35b3480156101bd57600080fd5b506101c6610630565b6040516101d39190610b91565b60405180910390f35b6101e4610636565b005b3480156101f257600080fd5b5061020d60048036038101906102089190610a18565b61070e565b005b60046020528060005260406000206000915054906101000a900460ff1681565b600160009054906101000a900473ffffffffffffffffffffffffffffffffffffffff1673ffffffffffffffffffffffffffffffffffffffff163373ffffffffffffffffffffffffffffffffffffffff161461028957600080fd5b60008082815481106102c4577f4e487b7100000000000000000000000000000000000000000000000000000000600052603260045260246000fd5b906000526020600020906004020190508060020160149054906101000a900460ff16156102f057600080fd5b60026003546102ff9190610c1e565b81600301541161030e57600080fd5b8060020160009054906101000a900473ffffffffffffffffffffffffffffffffffffffff1673ffffffffffffffffffffffffffffffffffffffff166108fc82600101549081150290604051600060405180830381858888f1935050505015801561037c573d6000803e3d6000fd5b5060018160020160146101000a81548160ff0219169083151502179055505050565b600160009054906101000a900473ffffffffffffffffffffffffffffffffffffffff1681565b600081815481106103d457600080fd5b90600052602060002090600402016000915090508060000180546103f790610cd9565b80601f016020809104026020016040519081016040528092919081815260200182805461042390610cd9565b80156104705780601f1061044557610100808354040283529160200191610470565b820191906000526020600020905b81548152906001019060200180831161045357829003601f168201915b5050505050908060010154908060020160009054906101000a900473ffffffffffffffffffffffffffffffffffffffff16908060020160149054906101000a900460ff16908060030154905085565b600160009054906101000a900473ffffffffffffffffffffffffffffffffffffffff1673ffffffffffffffffffffffffffffffffffffffff163373ffffffffffffffffffffffffffffffffffffffff161461051957600080fd5b60006040518060a001604052808581526020018481526020018373ffffffffffffffffffffffffffffffffffffffff16815260200160001515815260200160008152509050600081908060018154018082558091505060019003906000526020600020906004020160009091909190915060008201518160000190805190602001906105a6929190610853565b506020820151816001015560408201518160020160006101000a81548173ffffffffffffffffffffffffffffffffffffffff021916908373ffffffffffffffffffffffffffffffffffffffff16021790555060608201518160020160146101000a81548160ff02191690831515021790555060808201518160030155505050505050565b60025481565b60035481565b60025434101561064557600080fd5b600460003373ffffffffffffffffffffffffffffffffffffffff1673ffffffffffffffffffffffffffffffffffffffff16815260200190815260200160002060009054906101000a900460ff161561069c57600080fd5b6001600460003373ffffffffffffffffffffffffffffffffffffffff1673ffffffffffffffffffffffffffffffffffffffff16815260200190815260200160002060006101000a81548160ff0219169083151502179055506003600081548092919061070790610d3c565b9190505550565b600460003373ffffffffffffffffffffffffffffffffffffffff1673ffffffffffffffffffffffffffffffffffffffff16815260200190815260200160002060009054906101000a900460ff1661076457600080fd5b60008133604051602001610779929190610ad5565b604051602081830303815290604052805190602001209050600015156005600083815260200190815260200160002060009054906101000a900460ff161515146107c257600080fd5b60016005600083815260200190815260200160002060006101000a81548160ff02191690831515021790555060008281548110610828577f4e487b7100000000000000000000000000000000000000000000000000000000600052603260045260246000fd5b9060005260206000209060040201600301600081548092919061084a90610d3c565b91905055505050565b82805461085f90610cd9565b90600052602060002090601f01602090048101928261088157600085556108c8565b82601f1061089a57805160ff19168380011785556108c8565b828001600101855582156108c8579182015b828111156108c75782518255916020019190600101906108ac565b5b5090506108d591906108d9565b5090565b5b808211156108f25760008160009055506001016108da565b5090565b600061090961090484610bd1565b610bac565b90508281526020810184848401111561092157600080fd5b61092c848285610c97565b509392505050565b60008135905061094381610e8d565b92915050565b600082601f83011261095a57600080fd5b813561096a8482602086016108f6565b91505092915050565b60008135905061098281610ea4565b92915050565b60006020828403121561099a57600080fd5b60006109a884828501610934565b91505092915050565b6000806000606084860312156109c657600080fd5b600084013567ffffffffffffffff8111156109e057600080fd5b6109ec86828701610949565b93505060206109fd86828701610973565b9250506040610a0e86828701610934565b9150509250925092565b600060208284031215610a2a57600080fd5b6000610a3884828501610973565b91505092915050565b610a4a81610c4f565b82525050565b610a61610a5c82610c4f565b610d85565b82525050565b610a7081610c61565b82525050565b6000610a8182610c02565b610a8b8185610c0d565b9350610a9b818560208601610ca6565b610aa481610e6f565b840191505092915050565b610ab881610c8d565b82525050565b610acf610aca82610c8d565b610da9565b82525050565b6000610ae18285610abe565b602082019150610af18284610a50565b6014820191508190509392505050565b6000602082019050610b166000830184610a41565b92915050565b6000602082019050610b316000830184610a67565b92915050565b600060a0820190508181036000830152610b518188610a76565b9050610b606020830187610aaf565b610b6d6040830186610a41565b610b7a6060830185610a67565b610b876080830184610aaf565b9695505050505050565b6000602082019050610ba66000830184610aaf565b92915050565b6000610bb6610bc7565b9050610bc28282610d0b565b919050565b6000604051905090565b600067ffffffffffffffff821115610bec57610beb610e40565b5b610bf582610e6f565b9050602081019050919050565b600081519050919050565b600082825260208201905092915050565b6000610c2982610c8d565b9150610c3483610c8d565b925082610c4457610c43610de2565b5b828204905092915050565b6000610c5a82610c6d565b9050919050565b60008115159050919050565b600073ffffffffffffffffffffffffffffffffffffffff82169050919050565b6000819050919050565b82818337600083830152505050565b60005b83811015610cc4578082015181840152602081019050610ca9565b83811115610cd3576000848401525b50505050565b60006002820490506001821680610cf157607f821691505b60208210811415610d0557610d04610e11565b5b50919050565b610d1482610e6f565b810181811067ffffffffffffffff82111715610d3357610d32610e40565b5b80604052505050565b6000610d4782610c8d565b91507fffffffffffffffffffffffffffffffffffffffffffffffffffffffffffffffff821415610d7a57610d79610db3565b5b600182019050919050565b6000610d9082610d97565b9050919050565b6000610da282610e80565b9050919050565b6000819050919050565b7f4e487b7100000000000000000000000000000000000000000000000000000000600052601160045260246000fd5b7f4e487b7100000000000000000000000000000000000000000000000000000000600052601260045260246000fd5b7f4e487b7100000000000000000000000000000000000000000000000000000000600052602260045260246000fd5b7f4e487b7100000000000000000000000000000000000000000000000000000000600052604160045260246000fd5b6000601f19601f8301169050919050565b60008160601b9050919050565b610e9681610c4f565b8114610ea157600080fd5b50565b610ead81610c8d565b8114610eb857600080fd5b5056fea2646970667358221220dc04153a3eeb123eac3e288147ecfe85017e9fb1a982c85b56ee04b65b377c6664736f6c63430008030033","opcodes":"PUSH1 0x80 PUSH1 0x40 MSTORE CALLVALUE DUP1 ISZERO PUSH3 0x11 JUMPI PUSH1 0x0 DUP1 REVERT JUMPDEST POP PUSH1 0x40 MLOAD PUSH3 0x1071 CODESIZE SUB DUP1 PUSH3 0x1071 DUP4 CODECOPY DUP2 DUP2 ADD PUSH1 0x40 MSTORE DUP2 ADD SWAP1 PUSH3 0x37 SWAP2 SWAP1 PUSH3 0xBD JUMP JUMPDEST DUP1 PUSH1 0x1 PUSH1 0x0 PUSH2 0x100 EXP DUP2 SLOAD DUP2 PUSH20 0xFFFFFFFFFFFFFFFFFFFFFFFFFFFFFFFFFFFFFFFF MUL NOT AND SWAP1 DUP4 PUSH20 0xFFFFFFFFFFFFFFFFFFFFFFFFFFFFFFFFFFFFFFFF AND MUL OR SWAP1 SSTORE POP DUP2 PUSH1 0x2 DUP2 SWAP1 SSTORE POP PUSH1 0x0 PUSH1 0x3 DUP2 SWAP1 SSTORE POP POP POP PUSH3 0x170 JUMP JUMPDEST PUSH1 0x0 DUP2 MLOAD SWAP1 POP PUSH3 0xA0 DUP2 PUSH3 0x13C JUMP JUMPDEST SWAP3 SWAP2 POP POP JUMP JUMPDEST PUSH1 0x0 DUP2 MLOAD SWAP1 POP PUSH3 0xB7 DUP2 PUSH3 0x156 JUMP JUMPDEST SWAP3 SWAP2 POP POP JUMP JUMPDEST PUSH1 0x0 DUP1 PUSH1 0x40 DUP4 DUP6 SUB SLT ISZERO PUSH3 0xD1 JUMPI PUSH1 0x0 DUP1 REVERT JUMPDEST PUSH1 0x0 PUSH3 0xE1 DUP6 DUP3 DUP7 ADD PUSH3 0xA6 JUMP JUMPDEST SWAP3 POP POP PUSH1 0x20 PUSH3 0xF4 DUP6 DUP3 DUP7 ADD PUSH3 0x8F JUMP JUMPDEST SWAP2 POP POP SWAP3 POP SWAP3 SWAP1 POP JUMP JUMPDEST PUSH1 0x0 PUSH3 0x10B DUP3 PUSH3 0x112 JUMP JUMPDEST SWAP1 POP SWAP2 SWAP1 POP JUMP JUMPDEST PUSH1 0x0 PUSH20 0xFFFFFFFFFFFFFFFFFFFFFFFFFFFFFFFFFFFFFFFF DUP3 AND SWAP1 POP SWAP2 SWAP1 POP JUMP JUMPDEST PUSH1 0x0 DUP2 SWAP1 POP SWAP2 SWAP1 POP JUMP JUMPDEST PUSH3 0x147 DUP2 PUSH3 0xFE JUMP JUMPDEST DUP2 EQ PUSH3 0x153 JUMPI PUSH1 0x0 DUP1 REVERT JUMPDEST POP JUMP JUMPDEST PUSH3 0x161 DUP2 PUSH3 0x132 JUMP JUMPDEST DUP2 EQ PUSH3 0x16D JUMPI PUSH1 0x0 DUP1 REVERT JUMPDEST POP JUMP JUMPDEST PUSH2 0xEF1 DUP1 PUSH3 0x180 PUSH1 0x0 CODECOPY PUSH1 0x0 RETURN INVALID PUSH1 0x80 PUSH1 0x40 MSTORE PUSH1 0x4 CALLDATASIZE LT PUSH2 0x86 JUMPI PUSH1 0x0 CALLDATALOAD PUSH1 0xE0 SHR DUP1 PUSH4 0x8A9CFD55 GT PUSH2 0x59 JUMPI DUP1 PUSH4 0x8A9CFD55 EQ PUSH2 0x15D JUMPI DUP1 PUSH4 0x937E09B1 EQ PUSH2 0x186 JUMPI DUP1 PUSH4 0xB9632689 EQ PUSH2 0x1B1 JUMPI DUP1 PUSH4 0xD7BB99BA EQ PUSH2 0x1DC JUMPI DUP1 PUSH4 0xD7D1BBDB EQ PUSH2 0x1E6 JUMPI PUSH2 0x86 JUMP JUMPDEST DUP1 PUSH4 0x31B3677 EQ PUSH2 0x8B JUMPI DUP1 PUSH4 0x3441006 EQ PUSH2 0xC8 JUMPI DUP1 PUSH4 0x481C6A75 EQ PUSH2 0xF1 JUMPI DUP1 PUSH4 0x81D12C58 EQ PUSH2 0x11C JUMPI JUMPDEST PUSH1 0x0 DUP1 REVERT JUMPDEST CALLVALUE DUP1 ISZERO PUSH2 0x97 JUMPI PUSH1 0x0 DUP1 REVERT JUMPDEST POP PUSH2 0xB2 PUSH1 0x4 DUP1 CALLDATASIZE SUB DUP2 ADD SWAP1 PUSH2 0xAD SWAP2 SWAP1 PUSH2 0x988 JUMP JUMPDEST PUSH2 0x20F JUMP JUMPDEST PUSH1 0x40 MLOAD PUSH2 0xBF SWAP2 SWAP1 PUSH2 0xB1C JUMP JUMPDEST PUSH1 0x40 MLOAD DUP1 SWAP2 SUB SWAP1 RETURN JUMPDEST CALLVALUE DUP1 ISZERO PUSH2 0xD4 JUMPI PUSH1 0x0 DUP1 REVERT JUMPDEST POP PUSH2 0xEF PUSH1 0x4 DUP1 CALLDATASIZE SUB DUP2 ADD SWAP1 PUSH2 0xEA SWAP2 SWAP1 PUSH2 0xA18 JUMP JUMPDEST PUSH2 0x22F JUMP JUMPDEST STOP JUMPDEST CALLVALUE DUP1 ISZERO PUSH2 0xFD JUMPI PUSH1 0x0 DUP1 REVERT JUMPDEST POP PUSH2 0x106 PUSH2 0x39E JUMP JUMPDEST PUSH1 0x40 MLOAD PUSH2 0x113 SWAP2 SWAP1 PUSH2 0xB01 JUMP JUMPDEST PUSH1 0x40 MLOAD DUP1 SWAP2 SUB SWAP1 RETURN JUMPDEST CALLVALUE DUP1 ISZERO PUSH2 0x128 JUMPI PUSH1 0x0 DUP1 REVERT JUMPDEST POP PUSH2 0x143 PUSH1 0x4 DUP1 CALLDATASIZE SUB DUP2 ADD SWAP1 PUSH2 0x13E SWAP2 SWAP1 PUSH2 0xA18 JUMP JUMPDEST PUSH2 0x3C4 JUMP JUMPDEST PUSH1 0x40 MLOAD PUSH2 0x154 SWAP6 SWAP5 SWAP4 SWAP3 SWAP2 SWAP1 PUSH2 0xB37 JUMP JUMPDEST PUSH1 0x40 MLOAD DUP1 SWAP2 SUB SWAP1 RETURN JUMPDEST CALLVALUE DUP1 ISZERO PUSH2 0x169 JUMPI PUSH1 0x0 DUP1 REVERT JUMPDEST POP PUSH2 0x184 PUSH1 0x4 DUP1 CALLDATASIZE SUB DUP2 ADD SWAP1 PUSH2 0x17F SWAP2 SWAP1 PUSH2 0x9B1 JUMP JUMPDEST PUSH2 0x4BF JUMP JUMPDEST STOP JUMPDEST CALLVALUE DUP1 ISZERO PUSH2 0x192 JUMPI PUSH1 0x0 DUP1 REVERT JUMPDEST POP PUSH2 0x19B PUSH2 0x62A JUMP JUMPDEST PUSH1 0x40 MLOAD PUSH2 0x1A8 SWAP2 SWAP1 PUSH2 0xB91 JUMP JUMPDEST PUSH1 0x40 MLOAD DUP1 SWAP2 SUB SWAP1 RETURN JUMPDEST CALLVALUE DUP1 ISZERO PUSH2 0x1BD JUMPI PUSH1 0x0 DUP1 REVERT JUMPDEST POP PUSH2 0x1C6 PUSH2 0x630 JUMP JUMPDEST PUSH1 0x40 MLOAD PUSH2 0x1D3 SWAP2 SWAP1 PUSH2 0xB91 JUMP JUMPDEST PUSH1 0x40 MLOAD DUP1 SWAP2 SUB SWAP1 RETURN JUMPDEST PUSH2 0x1E4 PUSH2 0x636 JUMP JUMPDEST STOP JUMPDEST CALLVALUE DUP1 ISZERO PUSH2 0x1F2 JUMPI PUSH1 0x0 DUP1 REVERT JUMPDEST POP PUSH2 0x20D PUSH1 0x4 DUP1 CALLDATASIZE SUB DUP2 ADD SWAP1 PUSH2 0x208 SWAP2 SWAP1 PUSH2 0xA18 JUMP JUMPDEST PUSH2 0x70E JUMP JUMPDEST STOP JUMPDEST PUSH1 0x4 PUSH1 0x20 MSTORE DUP1 PUSH1 0x0 MSTORE PUSH1 0x40 PUSH1 0x0 KECCAK256 PUSH1 0x0 SWAP2 POP SLOAD SWAP1 PUSH2 0x100 EXP SWAP1 DIV PUSH1 0xFF AND DUP2 JUMP JUMPDEST PUSH1 0x1 PUSH1 0x0 SWAP1 SLOAD SWAP1 PUSH2 0x100 EXP SWAP1 DIV PUSH20 0xFFFFFFFFFFFFFFFFFFFFFFFFFFFFFFFFFFFFFFFF AND PUSH20 0xFFFFFFFFFFFFFFFFFFFFFFFFFFFFFFFFFFFFFFFF AND CALLER PUSH20 0xFFFFFFFFFFFFFFFFFFFFFFFFFFFFFFFFFFFFFFFF AND EQ PUSH2 0x289 JUMPI PUSH1 0x0 DUP1 REVERT JUMPDEST PUSH1 0x0 DUP1 DUP3 DUP2 SLOAD DUP2 LT PUSH2 0x2C4 JUMPI PUSH32 0x4E487B7100000000000000000000000000000000000000000000000000000000 PUSH1 0x0 MSTORE PUSH1 0x32 PUSH1 0x4 MSTORE PUSH1 0x24 PUSH1 0x0 REVERT JUMPDEST SWAP1 PUSH1 0x0 MSTORE PUSH1 0x20 PUSH1 0x0 KECCAK256 SWAP1 PUSH1 0x4 MUL ADD SWAP1 POP DUP1 PUSH1 0x2 ADD PUSH1 0x14 SWAP1 SLOAD SWAP1 PUSH2 0x100 EXP SWAP1 DIV PUSH1 0xFF AND ISZERO PUSH2 0x2F0 JUMPI PUSH1 0x0 DUP1 REVERT JUMPDEST PUSH1 0x2 PUSH1 0x3 SLOAD PUSH2 0x2FF SWAP2 SWAP1 PUSH2 0xC1E JUMP JUMPDEST DUP2 PUSH1 0x3 ADD SLOAD GT PUSH2 0x30E JUMPI PUSH1 0x0 DUP1 REVERT JUMPDEST DUP1 PUSH1 0x2 ADD PUSH1 0x0 SWAP1 SLOAD SWAP1 PUSH2 0x100 EXP SWAP1 DIV PUSH20 0xFFFFFFFFFFFFFFFFFFFFFFFFFFFFFFFFFFFFFFFF AND PUSH20 0xFFFFFFFFFFFFFFFFFFFFFFFFFFFFFFFFFFFFFFFF AND PUSH2 0x8FC DUP3 PUSH1 0x1 ADD SLOAD SWAP1 DUP2 ISZERO MUL SWAP1 PUSH1 0x40 MLOAD PUSH1 0x0 PUSH1 0x40 MLOAD DUP1 DUP4 SUB DUP2 DUP6 DUP9 DUP9 CALL SWAP4 POP POP POP POP ISZERO DUP1 ISZERO PUSH2 0x37C JUMPI RETURNDATASIZE PUSH1 0x0 DUP1 RETURNDATACOPY RETURNDATASIZE PUSH1 0x0 REVERT JUMPDEST POP PUSH1 0x1 DUP2 PUSH1 0x2 ADD PUSH1 0x14 PUSH2 0x100 EXP DUP2 SLOAD DUP2 PUSH1 0xFF MUL NOT AND SWAP1 DUP4 ISZERO ISZERO MUL OR SWAP1 SSTORE POP POP POP JUMP JUMPDEST PUSH1 0x1 PUSH1 0x0 SWAP1 SLOAD SWAP1 PUSH2 0x100 EXP SWAP1 DIV PUSH20 0xFFFFFFFFFFFFFFFFFFFFFFFFFFFFFFFFFFFFFFFF AND DUP2 JUMP JUMPDEST PUSH1 0x0 DUP2 DUP2 SLOAD DUP2 LT PUSH2 0x3D4 JUMPI PUSH1 0x0 DUP1 REVERT JUMPDEST SWAP1 PUSH1 0x0 MSTORE PUSH1 0x20 PUSH1 0x0 KECCAK256 SWAP1 PUSH1 0x4 MUL ADD PUSH1 0x0 SWAP2 POP SWAP1 POP DUP1 PUSH1 0x0 ADD DUP1 SLOAD PUSH2 0x3F7 SWAP1 PUSH2 0xCD9 JUMP JUMPDEST DUP1 PUSH1 0x1F ADD PUSH1 0x20 DUP1 SWAP2 DIV MUL PUSH1 0x20 ADD PUSH1 0x40 MLOAD SWAP1 DUP2 ADD PUSH1 0x40 MSTORE DUP1 SWAP3 SWAP2 SWAP1 DUP2 DUP2 MSTORE PUSH1 0x20 ADD DUP3 DUP1 SLOAD PUSH2 0x423 SWAP1 PUSH2 0xCD9 JUMP JUMPDEST DUP1 ISZERO PUSH2 0x470 JUMPI DUP1 PUSH1 0x1F LT PUSH2 0x445 JUMPI PUSH2 0x100 DUP1 DUP4 SLOAD DIV MUL DUP4 MSTORE SWAP2 PUSH1 0x20 ADD SWAP2 PUSH2 0x470 JUMP JUMPDEST DUP3 ADD SWAP2 SWAP1 PUSH1 0x0 MSTORE PUSH1 0x20 PUSH1 0x0 KECCAK256 SWAP1 JUMPDEST DUP2 SLOAD DUP2 MSTORE SWAP1 PUSH1 0x1 ADD SWAP1 PUSH1 0x20 ADD DUP1 DUP4 GT PUSH2 0x453 JUMPI DUP3 SWAP1 SUB PUSH1 0x1F AND DUP3 ADD SWAP2 JUMPDEST POP POP POP POP POP SWAP1 DUP1 PUSH1 0x1 ADD SLOAD SWAP1 DUP1 PUSH1 0x2 ADD PUSH1 0x0 SWAP1 SLOAD SWAP1 PUSH2 0x100 EXP SWAP1 DIV PUSH20 0xFFFFFFFFFFFFFFFFFFFFFFFFFFFFFFFFFFFFFFFF AND SWAP1 DUP1 PUSH1 0x2 ADD PUSH1 0x14 SWAP1 SLOAD SWAP1 PUSH2 0x100 EXP SWAP1 DIV PUSH1 0xFF AND SWAP1 DUP1 PUSH1 0x3 ADD SLOAD SWAP1 POP DUP6 JUMP JUMPDEST PUSH1 0x1 PUSH1 0x0 SWAP1 SLOAD SWAP1 PUSH2 0x100 EXP SWAP1 DIV PUSH20 0xFFFFFFFFFFFFFFFFFFFFFFFFFFFFFFFFFFFFFFFF AND PUSH20 0xFFFFFFFFFFFFFFFFFFFFFFFFFFFFFFFFFFFFFFFF AND CALLER PUSH20 0xFFFFFFFFFFFFFFFFFFFFFFFFFFFFFFFFFFFFFFFF AND EQ PUSH2 0x519 JUMPI PUSH1 0x0 DUP1 REVERT JUMPDEST PUSH1 0x0 PUSH1 0x40 MLOAD DUP1 PUSH1 0xA0 ADD PUSH1 0x40 MSTORE DUP1 DUP6 DUP2 MSTORE PUSH1 0x20 ADD DUP5 DUP2 MSTORE PUSH1 0x20 ADD DUP4 PUSH20 0xFFFFFFFFFFFFFFFFFFFFFFFFFFFFFFFFFFFFFFFF AND DUP2 MSTORE PUSH1 0x20 ADD PUSH1 0x0 ISZERO ISZERO DUP2 MSTORE PUSH1 0x20 ADD PUSH1 0x0 DUP2 MSTORE POP SWAP1 POP PUSH1 0x0 DUP2 SWAP1 DUP1 PUSH1 0x1 DUP2 SLOAD ADD DUP1 DUP3 SSTORE DUP1 SWAP2 POP POP PUSH1 0x1 SWAP1 SUB SWAP1 PUSH1 0x0 MSTORE PUSH1 0x20 PUSH1 0x0 KECCAK256 SWAP1 PUSH1 0x4 MUL ADD PUSH1 0x0 SWAP1 SWAP2 SWAP1 SWAP2 SWAP1 SWAP2 POP PUSH1 0x0 DUP3 ADD MLOAD DUP2 PUSH1 0x0 ADD SWAP1 DUP1 MLOAD SWAP1 PUSH1 0x20 ADD SWAP1 PUSH2 0x5A6 SWAP3 SWAP2 SWAP1 PUSH2 0x853 JUMP JUMPDEST POP PUSH1 0x20 DUP3 ADD MLOAD DUP2 PUSH1 0x1 ADD SSTORE PUSH1 0x40 DUP3 ADD MLOAD DUP2 PUSH1 0x2 ADD PUSH1 0x0 PUSH2 0x100 EXP DUP2 SLOAD DUP2 PUSH20 0xFFFFFFFFFFFFFFFFFFFFFFFFFFFFFFFFFFFFFFFF MUL NOT AND SWAP1 DUP4 PUSH20 0xFFFFFFFFFFFFFFFFFFFFFFFFFFFFFFFFFFFFFFFF AND MUL OR SWAP1 SSTORE POP PUSH1 0x60 DUP3 ADD MLOAD DUP2 PUSH1 0x2 ADD PUSH1 0x14 PUSH2 0x100 EXP DUP2 SLOAD DUP2 PUSH1 0xFF MUL NOT AND SWAP1 DUP4 ISZERO ISZERO MUL OR SWAP1 SSTORE POP PUSH1 0x80 DUP3 ADD MLOAD DUP2 PUSH1 0x3 ADD SSTORE POP POP POP POP POP POP JUMP JUMPDEST PUSH1 0x2 SLOAD DUP2 JUMP JUMPDEST PUSH1 0x3 SLOAD DUP2 JUMP JUMPDEST PUSH1 0x2 SLOAD CALLVALUE LT ISZERO PUSH2 0x645 JUMPI PUSH1 0x0 DUP1 REVERT JUMPDEST PUSH1 0x4 PUSH1 0x0 CALLER PUSH20 0xFFFFFFFFFFFFFFFFFFFFFFFFFFFFFFFFFFFFFFFF AND PUSH20 0xFFFFFFFFFFFFFFFFFFFFFFFFFFFFFFFFFFFFFFFF AND DUP2 MSTORE PUSH1 0x20 ADD SWAP1 DUP2 MSTORE PUSH1 0x20 ADD PUSH1 0x0 KECCAK256 PUSH1 0x0 SWAP1 SLOAD SWAP1 PUSH2 0x100 EXP SWAP1 DIV PUSH1 0xFF AND ISZERO PUSH2 0x69C JUMPI PUSH1 0x0 DUP1 REVERT JUMPDEST PUSH1 0x1 PUSH1 0x4 PUSH1 0x0 CALLER PUSH20 0xFFFFFFFFFFFFFFFFFFFFFFFFFFFFFFFFFFFFFFFF AND PUSH20 0xFFFFFFFFFFFFFFFFFFFFFFFFFFFFFFFFFFFFFFFF AND DUP2 MSTORE PUSH1 0x20 ADD SWAP1 DUP2 MSTORE PUSH1 0x20 ADD PUSH1 0x0 KECCAK256 PUSH1 0x0 PUSH2 0x100 EXP DUP2 SLOAD DUP2 PUSH1 0xFF MUL NOT AND SWAP1 DUP4 ISZERO ISZERO MUL OR SWAP1 SSTORE POP PUSH1 0x3 PUSH1 0x0 DUP2 SLOAD DUP1 SWAP3 SWAP2 SWAP1 PUSH2 0x707 SWAP1 PUSH2 0xD3C JUMP JUMPDEST SWAP2 SWAP1 POP SSTORE POP JUMP JUMPDEST PUSH1 0x4 PUSH1 0x0 CALLER PUSH20 0xFFFFFFFFFFFFFFFFFFFFFFFFFFFFFFFFFFFFFFFF AND PUSH20 0xFFFFFFFFFFFFFFFFFFFFFFFFFFFFFFFFFFFFFFFF AND DUP2 MSTORE PUSH1 0x20 ADD SWAP1 DUP2 MSTORE PUSH1 0x20 ADD PUSH1 0x0 KECCAK256 PUSH1 0x0 SWAP1 SLOAD SWAP1 PUSH2 0x100 EXP SWAP1 DIV PUSH1 0xFF AND PUSH2 0x764 JUMPI PUSH1 0x0 DUP1 REVERT JUMPDEST PUSH1 0x0 DUP2 CALLER PUSH1 0x40 MLOAD PUSH1 0x20 ADD PUSH2 0x779 SWAP3 SWAP2 SWAP1 PUSH2 0xAD5 JUMP JUMPDEST PUSH1 0x40 MLOAD PUSH1 0x20 DUP2 DUP4 SUB SUB DUP2 MSTORE SWAP1 PUSH1 0x40 MSTORE DUP1 MLOAD SWAP1 PUSH1 0x20 ADD KECCAK256 SWAP1 POP PUSH1 0x0 ISZERO ISZERO PUSH1 0x5 PUSH1 0x0 DUP4 DUP2 MSTORE PUSH1 0x20 ADD SWAP1 DUP2 MSTORE PUSH1 0x20 ADD PUSH1 0x0 KECCAK256 PUSH1 0x0 SWAP1 SLOAD SWAP1 PUSH2 0x100 EXP SWAP1 DIV PUSH1 0xFF AND ISZERO ISZERO EQ PUSH2 0x7C2 JUMPI PUSH1 0x0 DUP1 REVERT JUMPDEST PUSH1 0x1 PUSH1 0x5 PUSH1 0x0 DUP4 DUP2 MSTORE PUSH1 0x20 ADD SWAP1 DUP2 MSTORE PUSH1 0x20 ADD PUSH1 0x0 KECCAK256 PUSH1 0x0 PUSH2 0x100 EXP DUP2 SLOAD DUP2 PUSH1 0xFF MUL NOT AND SWAP1 DUP4 ISZERO ISZERO MUL OR SWAP1 SSTORE POP PUSH1 0x0 DUP3 DUP2 SLOAD DUP2 LT PUSH2 0x828 JUMPI PUSH32 0x4E487B7100000000000000000000000000000000000000000000000000000000 PUSH1 0x0 MSTORE PUSH1 0x32 PUSH1 0x4 MSTORE PUSH1 0x24 PUSH1 0x0 REVERT JUMPDEST SWAP1 PUSH1 0x0 MSTORE PUSH1 0x20 PUSH1 0x0 KECCAK256 SWAP1 PUSH1 0x4 MUL ADD PUSH1 0x3 ADD PUSH1 0x0 DUP2 SLOAD DUP1 SWAP3 SWAP2 SWAP1 PUSH2 0x84A SWAP1 PUSH2 0xD3C JUMP JUMPDEST SWAP2 SWAP1 POP SSTORE POP POP POP JUMP JUMPDEST DUP3 DUP1 SLOAD PUSH2 0x85F SWAP1 PUSH2 0xCD9 JUMP JUMPDEST SWAP1 PUSH1 0x0 MSTORE PUSH1 0x20 PUSH1 0x0 KECCAK256 SWAP1 PUSH1 0x1F ADD PUSH1 0x20 SWAP1 DIV DUP2 ADD SWAP3 DUP3 PUSH2 0x881 JUMPI PUSH1 0x0 DUP6 SSTORE PUSH2 0x8C8 JUMP JUMPDEST DUP3 PUSH1 0x1F LT PUSH2 0x89A JUMPI DUP1 MLOAD PUSH1 0xFF NOT AND DUP4 DUP1 ADD OR DUP6 SSTORE PUSH2 0x8C8 JUMP JUMPDEST DUP3 DUP1 ADD PUSH1 0x1 ADD DUP6 SSTORE DUP3 ISZERO PUSH2 0x8C8 JUMPI SWAP2 DUP3 ADD JUMPDEST DUP3 DUP2 GT ISZERO PUSH2 0x8C7 JUMPI DUP3 MLOAD DUP3 SSTORE SWAP2 PUSH1 0x20 ADD SWAP2 SWAP1 PUSH1 0x1 ADD SWAP1 PUSH2 0x8AC JUMP JUMPDEST JUMPDEST POP SWAP1 POP PUSH2 0x8D5 SWAP2 SWAP1 PUSH2 0x8D9 JUMP JUMPDEST POP SWAP1 JUMP JUMPDEST JUMPDEST DUP1 DUP3 GT ISZERO PUSH2 0x8F2 JUMPI PUSH1 0x0 DUP2 PUSH1 0x0 SWAP1 SSTORE POP PUSH1 0x1 ADD PUSH2 0x8DA JUMP JUMPDEST POP SWAP1 JUMP JUMPDEST PUSH1 0x0 PUSH2 0x909 PUSH2 0x904 DUP5 PUSH2 0xBD1 JUMP JUMPDEST PUSH2 0xBAC JUMP JUMPDEST SWAP1 POP DUP3 DUP2 MSTORE PUSH1 0x20 DUP2 ADD DUP5 DUP5 DUP5 ADD GT ISZERO PUSH2 0x921 JUMPI PUSH1 0x0 DUP1 REVERT JUMPDEST PUSH2 0x92C DUP5 DUP3 DUP6 PUSH2 0xC97 JUMP JUMPDEST POP SWAP4 SWAP3 POP POP POP JUMP JUMPDEST PUSH1 0x0 DUP2 CALLDATALOAD SWAP1 POP PUSH2 0x943 DUP2 PUSH2 0xE8D JUMP JUMPDEST SWAP3 SWAP2 POP POP JUMP JUMPDEST PUSH1 0x0 DUP3 PUSH1 0x1F DUP4 ADD SLT PUSH2 0x95A JUMPI PUSH1 0x0 DUP1 REVERT JUMPDEST DUP2 CALLDATALOAD PUSH2 0x96A DUP5 DUP3 PUSH1 0x20 DUP7 ADD PUSH2 0x8F6 JUMP JUMPDEST SWAP2 POP POP SWAP3 SWAP2 POP POP JUMP JUMPDEST PUSH1 0x0 DUP2 CALLDATALOAD SWAP1 POP PUSH2 0x982 DUP2 PUSH2 0xEA4 JUMP JUMPDEST SWAP3 SWAP2 POP POP JUMP JUMPDEST PUSH1 0x0 PUSH1 0x20 DUP3 DUP5 SUB SLT ISZERO PUSH2 0x99A JUMPI PUSH1 0x0 DUP1 REVERT JUMPDEST PUSH1 0x0 PUSH2 0x9A8 DUP5 DUP3 DUP6 ADD PUSH2 0x934 JUMP JUMPDEST SWAP2 POP POP SWAP3 SWAP2 POP POP JUMP JUMPDEST PUSH1 0x0 DUP1 PUSH1 0x0 PUSH1 0x60 DUP5 DUP7 SUB SLT ISZERO PUSH2 0x9C6 JUMPI PUSH1 0x0 DUP1 REVERT JUMPDEST PUSH1 0x0 DUP5 ADD CALLDATALOAD PUSH8 0xFFFFFFFFFFFFFFFF DUP2 GT ISZERO PUSH2 0x9E0 JUMPI PUSH1 0x0 DUP1 REVERT JUMPDEST PUSH2 0x9EC DUP7 DUP3 DUP8 ADD PUSH2 0x949 JUMP JUMPDEST SWAP4 POP POP PUSH1 0x20 PUSH2 0x9FD DUP7 DUP3 DUP8 ADD PUSH2 0x973 JUMP JUMPDEST SWAP3 POP POP PUSH1 0x40 PUSH2 0xA0E DUP7 DUP3 DUP8 ADD PUSH2 0x934 JUMP JUMPDEST SWAP2 POP POP SWAP3 POP SWAP3 POP SWAP3 JUMP JUMPDEST PUSH1 0x0 PUSH1 0x20 DUP3 DUP5 SUB SLT ISZERO PUSH2 0xA2A JUMPI PUSH1 0x0 DUP1 REVERT JUMPDEST PUSH1 0x0 PUSH2 0xA38 DUP5 DUP3 DUP6 ADD PUSH2 0x973 JUMP JUMPDEST SWAP2 POP POP SWAP3 SWAP2 POP POP JUMP JUMPDEST PUSH2 0xA4A DUP2 PUSH2 0xC4F JUMP JUMPDEST DUP3 MSTORE POP POP JUMP JUMPDEST PUSH2 0xA61 PUSH2 0xA5C DUP3 PUSH2 0xC4F JUMP JUMPDEST PUSH2 0xD85 JUMP JUMPDEST DUP3 MSTORE POP POP JUMP JUMPDEST PUSH2 0xA70 DUP2 PUSH2 0xC61 JUMP JUMPDEST DUP3 MSTORE POP POP JUMP JUMPDEST PUSH1 0x0 PUSH2 0xA81 DUP3 PUSH2 0xC02 JUMP JUMPDEST PUSH2 0xA8B DUP2 DUP6 PUSH2 0xC0D JUMP JUMPDEST SWAP4 POP PUSH2 0xA9B DUP2 DUP6 PUSH1 0x20 DUP7 ADD PUSH2 0xCA6 JUMP JUMPDEST PUSH2 0xAA4 DUP2 PUSH2 0xE6F JUMP JUMPDEST DUP5 ADD SWAP2 POP POP SWAP3 SWAP2 POP POP JUMP JUMPDEST PUSH2 0xAB8 DUP2 PUSH2 0xC8D JUMP JUMPDEST DUP3 MSTORE POP POP JUMP JUMPDEST PUSH2 0xACF PUSH2 0xACA DUP3 PUSH2 0xC8D JUMP JUMPDEST PUSH2 0xDA9 JUMP JUMPDEST DUP3 MSTORE POP POP JUMP JUMPDEST PUSH1 0x0 PUSH2 0xAE1 DUP3 DUP6 PUSH2 0xABE JUMP JUMPDEST PUSH1 0x20 DUP3 ADD SWAP2 POP PUSH2 0xAF1 DUP3 DUP5 PUSH2 0xA50 JUMP JUMPDEST PUSH1 0x14 DUP3 ADD SWAP2 POP DUP2 SWAP1 POP SWAP4 SWAP3 POP POP POP JUMP JUMPDEST PUSH1 0x0 PUSH1 0x20 DUP3 ADD SWAP1 POP PUSH2 0xB16 PUSH1 0x0 DUP4 ADD DUP5 PUSH2 0xA41 JUMP JUMPDEST SWAP3 SWAP2 POP POP JUMP JUMPDEST PUSH1 0x0 PUSH1 0x20 DUP3 ADD SWAP1 POP PUSH2 0xB31 PUSH1 0x0 DUP4 ADD DUP5 PUSH2 0xA67 JUMP JUMPDEST SWAP3 SWAP2 POP POP JUMP JUMPDEST PUSH1 0x0 PUSH1 0xA0 DUP3 ADD SWAP1 POP DUP2 DUP2 SUB PUSH1 0x0 DUP4 ADD MSTORE PUSH2 0xB51 DUP2 DUP9 PUSH2 0xA76 JUMP JUMPDEST SWAP1 POP PUSH2 0xB60 PUSH1 0x20 DUP4 ADD DUP8 PUSH2 0xAAF JUMP JUMPDEST PUSH2 0xB6D PUSH1 0x40 DUP4 ADD DUP7 PUSH2 0xA41 JUMP JUMPDEST PUSH2 0xB7A PUSH1 0x60 DUP4 ADD DUP6 PUSH2 0xA67 JUMP JUMPDEST PUSH2 0xB87 PUSH1 0x80 DUP4 ADD DUP5 PUSH2 0xAAF JUMP JUMPDEST SWAP7 SWAP6 POP POP POP POP POP POP JUMP JUMPDEST PUSH1 0x0 PUSH1 0x20 DUP3 ADD SWAP1 POP PUSH2 0xBA6 PUSH1 0x0 DUP4 ADD DUP5 PUSH2 0xAAF JUMP JUMPDEST SWAP3 SWAP2 POP POP JUMP JUMPDEST PUSH1 0x0 PUSH2 0xBB6 PUSH2 0xBC7 JUMP JUMPDEST SWAP1 POP PUSH2 0xBC2 DUP3 DUP3 PUSH2 0xD0B JUMP JUMPDEST SWAP2 SWAP1 POP JUMP JUMPDEST PUSH1 0x0 PUSH1 0x40 MLOAD SWAP1 POP SWAP1 JUMP JUMPDEST PUSH1 0x0 PUSH8 0xFFFFFFFFFFFFFFFF DUP3 GT ISZERO PUSH2 0xBEC JUMPI PUSH2 0xBEB PUSH2 0xE40 JUMP JUMPDEST JUMPDEST PUSH2 0xBF5 DUP3 PUSH2 0xE6F JUMP JUMPDEST SWAP1 POP PUSH1 0x20 DUP2 ADD SWAP1 POP SWAP2 SWAP1 POP JUMP JUMPDEST PUSH1 0x0 DUP2 MLOAD SWAP1 POP SWAP2 SWAP1 POP JUMP JUMPDEST PUSH1 0x0 DUP3 DUP3 MSTORE PUSH1 0x20 DUP3 ADD SWAP1 POP SWAP3 SWAP2 POP POP JUMP JUMPDEST PUSH1 0x0 PUSH2 0xC29 DUP3 PUSH2 0xC8D JUMP JUMPDEST SWAP2 POP PUSH2 0xC34 DUP4 PUSH2 0xC8D JUMP JUMPDEST SWAP3 POP DUP3 PUSH2 0xC44 JUMPI PUSH2 0xC43 PUSH2 0xDE2 JUMP JUMPDEST JUMPDEST DUP3 DUP3 DIV SWAP1 POP SWAP3 SWAP2 POP POP JUMP JUMPDEST PUSH1 0x0 PUSH2 0xC5A DUP3 PUSH2 0xC6D JUMP JUMPDEST SWAP1 POP SWAP2 SWAP1 POP JUMP JUMPDEST PUSH1 0x0 DUP2 ISZERO ISZERO SWAP1 POP SWAP2 SWAP1 POP JUMP JUMPDEST PUSH1 0x0 PUSH20 0xFFFFFFFFFFFFFFFFFFFFFFFFFFFFFFFFFFFFFFFF DUP3 AND SWAP1 POP SWAP2 SWAP1 POP JUMP JUMPDEST PUSH1 0x0 DUP2 SWAP1 POP SWAP2 SWAP1 POP JUMP JUMPDEST DUP3 DUP2 DUP4 CALLDATACOPY PUSH1 0x0 DUP4 DUP4 ADD MSTORE POP POP POP JUMP JUMPDEST PUSH1 0x0 JUMPDEST DUP4 DUP2 LT ISZERO PUSH2 0xCC4 JUMPI DUP1 DUP3 ADD MLOAD DUP2 DUP5 ADD MSTORE PUSH1 0x20 DUP2 ADD SWAP1 POP PUSH2 0xCA9 JUMP JUMPDEST DUP4 DUP2 GT ISZERO PUSH2 0xCD3 JUMPI PUSH1 0x0 DUP5 DUP5 ADD MSTORE JUMPDEST POP POP POP POP JUMP JUMPDEST PUSH1 0x0 PUSH1 0x2 DUP3 DIV SWAP1 POP PUSH1 0x1 DUP3 AND DUP1 PUSH2 0xCF1 JUMPI PUSH1 0x7F DUP3 AND SWAP2 POP JUMPDEST PUSH1 0x20 DUP3 LT DUP2 EQ ISZERO PUSH2 0xD05 JUMPI PUSH2 0xD04 PUSH2 0xE11 JUMP JUMPDEST JUMPDEST POP SWAP2 SWAP1 POP JUMP JUMPDEST PUSH2 0xD14 DUP3 PUSH2 0xE6F JUMP JUMPDEST DUP2 ADD DUP2 DUP2 LT PUSH8 0xFFFFFFFFFFFFFFFF DUP3 GT OR ISZERO PUSH2 0xD33 JUMPI PUSH2 0xD32 PUSH2 0xE40 JUMP JUMPDEST JUMPDEST DUP1 PUSH1 0x40 MSTORE POP POP POP JUMP JUMPDEST PUSH1 0x0 PUSH2 0xD47 DUP3 PUSH2 0xC8D JUMP JUMPDEST SWAP2 POP PUSH32 0xFFFFFFFFFFFFFFFFFFFFFFFFFFFFFFFFFFFFFFFFFFFFFFFFFFFFFFFFFFFFFFFF DUP3 EQ ISZERO PUSH2 0xD7A JUMPI PUSH2 0xD79 PUSH2 0xDB3 JUMP JUMPDEST JUMPDEST PUSH1 0x1 DUP3 ADD SWAP1 POP SWAP2 SWAP1 POP JUMP JUMPDEST PUSH1 0x0 PUSH2 0xD90 DUP3 PUSH2 0xD97 JUMP JUMPDEST SWAP1 POP SWAP2 SWAP1 POP JUMP JUMPDEST PUSH1 0x0 PUSH2 0xDA2 DUP3 PUSH2 0xE80 JUMP JUMPDEST SWAP1 POP SWAP2 SWAP1 POP JUMP JUMPDEST PUSH1 0x0 DUP2 SWAP1 POP SWAP2 SWAP1 POP JUMP JUMPDEST PUSH32 0x4E487B7100000000000000000000000000000000000000000000000000000000 PUSH1 0x0 MSTORE PUSH1 0x11 PUSH1 0x4 MSTORE PUSH1 0x24 PUSH1 0x0 REVERT JUMPDEST PUSH32 0x4E487B7100000000000000000000000000000000000000000000000000000000 PUSH1 0x0 MSTORE PUSH1 0x12 PUSH1 0x4 MSTORE PUSH1 0x24 PUSH1 0x0 REVERT JUMPDEST PUSH32 0x4E487B7100000000000000000000000000000000000000000000000000000000 PUSH1 0x0 MSTORE PUSH1 0x22 PUSH1 0x4 MSTORE PUSH1 0x24 PUSH1 0x0 REVERT JUMPDEST PUSH32 0x4E487B7100000000000000000000000000000000000000000000000000000000 PUSH1 0x0 MSTORE PUSH1 0x41 PUSH1 0x4 MSTORE PUSH1 0x24 PUSH1 0x0 REVERT JUMPDEST PUSH1 0x0 PUSH1 0x1F NOT PUSH1 0x1F DUP4 ADD AND SWAP1 POP SWAP2 SWAP1 POP JUMP JUMPDEST PUSH1 0x0 DUP2 PUSH1 0x60 SHL SWAP1 POP SWAP2 SWAP1 POP JUMP JUMPDEST PUSH2 0xE96 DUP2 PUSH2 0xC4F JUMP JUMPDEST DUP2 EQ PUSH2 0xEA1 JUMPI PUSH1 0x0 DUP1 REVERT JUMPDEST POP JUMP JUMPDEST PUSH2 0xEAD DUP2 PUSH2 0xC8D JUMP JUMPDEST DUP2 EQ PUSH2 0xEB8 JUMPI PUSH1 0x0 DUP1 REVERT JUMPDEST POP JUMP INVALID LOG2 PUSH5 0x6970667358 0x22 SLT KECCAK256 0xDC DIV ISZERO GASPRICE RETURNDATACOPY 0xEB SLT RETURNDATACOPY 0xAC RETURNDATACOPY 0x28 DUP2 SELFBALANCE 0xEC INVALID DUP6 ADD PUSH31 0x9FB1A982C85B56EE04B65B377C6664736F6C63430008030033000000000000 "},"gasEstimates":{"creation":{"codeDepositCost":"765000","executionCost":"infinite","totalCost":"infinite"},"external":{"approveRequest(uint256)":"infinite","contribute()":"43872","createRequest(string,uint256,address)":"infinite","finalizeRequest(uint256)":"infinite","funders(address)":"1546","manager()":"1259","minimumContribution()":"1151","numFunders()":"1173","requests(uint256)":"infinite"}},"methodIdentifiers":{"approveRequest(uint256)":"d7d1bbdb","contribute()":"d7bb99ba","createRequest(string,uint256,address)":"8a9cfd55","finalizeRequest(uint256)":"03441006","funders(address)":"031b3677","manager()":"481c6a75","minimumContribution()":"937e09b1","numFunders()":"b9632689","requests(uint256)":"81d12c58"}},"storageLayout":{"storage":[{"astId":55,"contract":"Campaign.sol:Campaign","label":"requests","offset":0,"slot":"0","type":"t_array(t_struct(Request)51_storage)dyn_storage"},{"astId":57,"contract":"Campaign.sol:Campaign","label":"manager","offset":0,"slot":"1","type":"t_address"},{"astId":59,"contract":"Campaign.sol:Campaign","label":"minimumContribution","offset":0,"slot":"2","type":"t_uint256"},{"astId":61,"contract":"Campaign.sol:Campaign","label":"numFunders","offset":0,"slot":"3","type":"t_uint256"},{"astId":65,"contract":"Campaign.sol:Campaign","label":"funders","offset":0,"slot":"4","type":"t_mapping(t_address,t_bool)"},{"astId":69,"contract":"Campaign.sol:Campaign","label":"voteHash","offset":0,"slot":"5","type":"t_mapping(t_bytes32,t_bool)"}],"types":{"t_address":{"encoding":"inplace","label":"address","numberOfBytes":"20"},"t_array(t_struct(Request)51_storage)dyn_storage":{"base":"t_struct(Request)51_storage","encoding":"dynamic_array","label":"struct Campaign.Request[]","numberOfBytes":"32"},"t_bool":{"encoding":"inplace","label":"bool","numberOfBytes":"1"},"t_bytes32":{"encoding":"inplace","label":"bytes32","numberOfBytes":"32"},"t_mapping(t_address,t_bool)":{"encoding":"mapping","key":"t_address","label":"mapping(address => bool)","numberOfBytes":"32","value":"t_bool"},"t_mapping(t_bytes32,t_bool)":{"encoding":"mapping","key":"t_bytes32","label":"mapping(bytes32 => bool)","numberOfBytes":"32","value":"t_bool"},"t_string_storage":{"encoding":"bytes","label":"string","numberOfBytes":"32"},"t_struct(Request)51_storage":{"encoding":"inplace","label":"struct Campaign.Request","members":[{"astId":42,"contract":"Campaign.sol:Campaign","label":"description","offset":0,"slot":"0","type":"t_string_storage"},{"astId":44,"contract":"Campaign.sol:Campaign","label":"value","offset":0,"slot":"1","type":"t_uint256"},{"astId":46,"contract":"Campaign.sol:Campaign","label":"recipient","offset":0,"slot":"2","type":"t_address"},{"astId":48,"contract":"Campaign.sol:Campaign","label":"complete","offset":20,"slot":"2","type":"t_bool"},{"astId":50,"contract":"Campaign.sol:Campaign","label":"approvalCount","offset":0,"slot":"3","type":"t_uint256"}],"numberOfBytes":"128"},"t_uint256":{"encoding":"inplace","label":"uint256","numberOfBytes":"32"}}},"userdoc":{"kind":"user","methods":{},"version":1}}